{
  "contractName": "Beamre",
  "abi": [
    {
      "inputs": [
        {
          "internalType": "address",
          "name": "metreon_",
          "type": "address"
        }
      ],
      "stateMutability": "nonpayable",
      "type": "constructor"
    },
    {
      "inputs": [
        {
          "internalType": "address",
          "name": "router",
          "type": "address"
        }
      ],
      "name": "InvalidRouter",
      "type": "error"
    },
    {
      "anonymous": false,
      "inputs": [
        {
          "indexed": true,
          "internalType": "address",
          "name": "previousOwner",
          "type": "address"
        },
        {
          "indexed": true,
          "internalType": "address",
          "name": "newOwner",
          "type": "address"
        }
      ],
      "name": "OwnershipTransferred",
      "type": "event"
    },
    {
      "inputs": [
        {
          "internalType": "address",
          "name": "",
          "type": "address"
        },
        {
          "internalType": "uint256",
          "name": "",
          "type": "uint256"
        }
      ],
      "name": "_actions",
      "outputs": [
        {
          "internalType": "bytes32",
          "name": "",
          "type": "bytes32"
        }
      ],
      "stateMutability": "view",
      "type": "function",
      "constant": true
    },
    {
      "inputs": [
        {
          "internalType": "uint256",
          "name": "",
          "type": "uint256"
        }
      ],
      "name": "_contracts",
      "outputs": [
        {
          "internalType": "address",
          "name": "",
          "type": "address"
        }
      ],
      "stateMutability": "view",
      "type": "function",
      "constant": true
    },
    {
      "inputs": [],
      "name": "getMetreon",
      "outputs": [
        {
          "internalType": "address",
          "name": "",
          "type": "address"
        }
      ],
      "stateMutability": "view",
      "type": "function",
      "constant": true
    },
    {
      "inputs": [],
      "name": "metreonPayMaster",
      "outputs": [
        {
          "internalType": "address",
          "name": "",
          "type": "address"
        }
      ],
      "stateMutability": "view",
      "type": "function",
      "constant": true
    },
    {
      "inputs": [
        {
          "components": [
            {
              "internalType": "bytes32",
              "name": "messageId",
              "type": "bytes32"
            },
            {
              "internalType": "uint256",
              "name": "fromChainId",
              "type": "uint256"
            },
            {
              "internalType": "address",
              "name": "sender",
              "type": "address"
            },
            {
              "internalType": "bytes",
              "name": "payload",
              "type": "bytes"
            },
            {
              "components": [
                {
                  "internalType": "address",
                  "name": "tokenId",
                  "type": "address"
                },
                {
                  "internalType": "uint256",
                  "name": "amount",
                  "type": "uint256"
                }
              ],
              "internalType": "struct Data.Token[]",
              "name": "tokens",
              "type": "tuple[]"
            },
            {
              "internalType": "enum Data.PayMaster",
              "name": "payMaster",
              "type": "uint8"
            }
          ],
          "internalType": "struct Data.IncomingMessage",
          "name": "message",
          "type": "tuple"
        },
        {
          "internalType": "address",
          "name": "tokenPool",
          "type": "address"
        }
      ],
      "name": "metreonReceive",
      "outputs": [],
      "stateMutability": "nonpayable",
      "type": "function"
    },
    {
      "inputs": [],
      "name": "owner",
      "outputs": [
        {
          "internalType": "address",
          "name": "",
          "type": "address"
        }
      ],
      "stateMutability": "view",
      "type": "function",
      "constant": true
    },
    {
      "inputs": [],
      "name": "renounceOwnership",
      "outputs": [],
      "stateMutability": "nonpayable",
      "type": "function"
    },
    {
      "inputs": [
        {
          "internalType": "address",
          "name": "newOwner",
          "type": "address"
        }
      ],
      "name": "transferOwnership",
      "outputs": [],
      "stateMutability": "nonpayable",
      "type": "function"
    },
    {
      "inputs": [
        {
          "internalType": "uint256",
          "name": "chainId",
          "type": "uint256"
        },
        {
          "internalType": "address",
          "name": "contractId",
          "type": "address"
        }
      ],
      "name": "setContract",
      "outputs": [],
      "stateMutability": "nonpayable",
      "type": "function"
    },
    {
      "inputs": [
        {
          "internalType": "uint256",
          "name": "toChainId",
          "type": "uint256"
        },
        {
          "components": [
            {
              "internalType": "address",
              "name": "tokenId",
              "type": "address"
            },
            {
              "internalType": "uint256",
              "name": "amount",
              "type": "uint256"
            }
          ],
          "internalType": "struct Data.Token[]",
          "name": "tokens",
          "type": "tuple[]"
        }
      ],
      "name": "bridgeToken",
      "outputs": [],
      "stateMutability": "payable",
      "type": "function",
      "payable": true
    }
  ],
  "bytecode": "0x60a0346100f457610fd080380390601f19601f83011683019183831067ffffffffffffffff8411176100f9578084926020946040528339810103126100f45751600160a060020a03808216918281036100f45760005491600160a060020a0319923384821617600055604051913391167f8be0079c531659141344cd1fd0a4f28419497f9722a3daafe3b4186f6b6457e0600080a383156100c557506080526001541617600155604051610ea7908161012982396080518181816105cc0152610b6b0152f35b807fd7f73334000000000000000000000000000000000000000000000000000000006024925260006004820152fd5b600080fd5b7f4e487b7100000000000000000000000000000000000000000000000000000000600052604160045260246000fdfe608080604052600436101561001357600080fd5b6000907c01000000000000000000000000000000000000000000000000000000008235049081635c72a56914610c145750806367acd8a014610be1578063715018a614610b8f578063737fb66b14610b4b57806389e865a914610b075780638da5cb5b14610ae1578063b2bfc83514610a87578063e6f234f614610587578063f2fde38b146104935763f31c1448146100ab57600080fd5b60403660031901126104905767ffffffffffffffff60043560243582811161048c576100db903690600401610ccf565b908084526003602052600160a060020a03604085205416906040519333602086015260208552846040810110816040870111176104735760e085019081116040860182101761047357604052604084015260608301528160808101528060a0830152600160c0830152825b8151811015610297576101598183610e46565b51906020600160a060020a03835116920191825192604051937f23b872dd00000000000000000000000000000000000000000000000000000000855233600486015230602486015260448501526020846064818a865af191821561028c576102169460209361026f575b5060015491516040517f095ea7b3000000000000000000000000000000000000000000000000000000008152600160a060020a039093166004840152602483015290938491908290899082906044820190565b03925af19182156102645761023092610235575b50610e1e565b610146565b6102569060203d60201161025d575b61024e8183610cad565b810190610e59565b503861022a565b503d610244565b6040513d87823e3d90fd5b61028590843d861161025d5761024e8183610cad565b50386101c3565b6040513d89823e3d90fd5b50508190600160a060020a0360015416906040519283917fff9ec5fa0000000000000000000000000000000000000000000000000000000083526020600484015260408101516024840152600160a060020a036060820151166044840152608081015160a060648501528051908160c4860152835b8281106104585750508260e48286010152601f801991011683019060e48201602061010460a08401519460c0888203016084890152855180945201930190845b818110610427575050509183809261036f60c060209896015160a4840190610df8565b03925af190811561041c5782916103e6575b50338252600260205260408220805490680100000000000000008210156103cf57906103b291600182018155610c7c565b600882939254910260020a91828503928391021691191617905580f35b60248460e060020a634e487b710281526041600452fd5b90506020813d602011610414575b8161040160209383610cad565b81010312610410575138610381565b5080fd5b3d91506103f4565b6040513d84823e3d90fd5b82518051600160a060020a03168652602090810151818701528997508a96506040909501949092019160010161034c565b602081830181015160e48a840101528896508995500161030c565b60e060020a634e487b7102600052604160045260246000fd5b8380fd5b80fd5b5034610490576020366003190112610490576104ad610c52565b6104b5610d86565b600160a060020a038091169081156105035760005482600160a060020a0319821617600055167f8be0079c531659141344cd1fd0a4f28419497f9722a3daafe3b4186f6b6457e0600080a380f35b60846040517f08c379a000000000000000000000000000000000000000000000000000000000815260206004820152602660248201527f4f776e61626c653a206e6577206f776e657220697320746865207a65726f206160448201527f64647265737300000000000000000000000000000000000000000000000000006064820152fd5b5034610490576003196040368201126104105767ffffffffffffffff600435116104105760c09060043536030112610490576105c1610c37565b33600160a060020a037f00000000000000000000000000000000000000000000000000000000000000001603610a57576040519060c0820182811067ffffffffffffffff8211176103cf57604052600435600401358252602460043501356020830152610632604460043501610c68565b604083015267ffffffffffffffff6064600435013511610a3c57366004356064810135016023011215610a3c5767ffffffffffffffff60048035606481013501013511610a405760405161069b600480356064810135010135601f01601f191660200182610cad565b60048035606481013501908101358083523691016024011161048c5760048035606481013501908101359060240160208301378360206004606481350135813501013583010152606083015267ffffffffffffffff6084600435013511610a3c57610710366004803560848101350101610ccf565b6080830152600260a460043501351015610a3c5760a4600435013560a0830152606082015160208180518101031261048c576020015190600160a060020a038216820361048c5783805b6080850151805182101561080b576107dc61077783602093610e46565b5182600160a060020a038251169101516040519586809481937fa9059cbb000000000000000000000000000000000000000000000000000000008352600160a060020a038c166004840160209093929193600160a060020a0360408201951681520152565b03925af1908115610800576080926107f8926102355750610e1e565b85915061075a565b6040513d88823e3d90fd5b82846022196004353603016084600435013512156104105760048035608481013501013567ffffffffffffffff8111610a3c5760408102360360043560848101350160240113610a3c5761085d575080f35b600160a060020a0381163b1561041057604051907f25ed576d00000000000000000000000000000000000000000000000000000000825230600483015260406024830152600435600401356044830152602460043501356064830152600160a060020a036108cf604460043501610c68565b166084830152602219600435360301606460043501351215610a3c5760043560646004350135016024600482013591019067ffffffffffffffff8111610a38578036038213610a385760c060a48501528061010485015280610124928386013784828286010152601f801991011683019081016004356084600435013501906024600483013592019267ffffffffffffffff8311610a34576040830236038413610a345791610144838288969460e0888c9a98030160c489015252019190855b8181106109f75750505083600160a060020a038480936109b860e4830160a46004350135610df8565b0393165af1801561041c576109cb575080f35b67ffffffffffffffff81116109e05760405280f35b60248260e060020a634e487b710281526041600452fd5b926040919496508295508190600160a060020a03610a16600195610c68565b1681526020870135602082015201940191019086949286949261098f565b8680fd5b8480fd5b8280fd5b60248360e060020a634e487b710281526041600452fd5b60246040517fd7f73334000000000000000000000000000000000000000000000000000000008152336004820152fd5b503461049057604036600319011261049057610aa1610c52565b600160a060020a0316815260026020526040812080546024359290831015610490576020610acf8484610c7c565b90546008604051920260020a90048152f35b5034610490578060031936011261049057600160a060020a036020915416604051908152f35b503461049057604036600319011261049057610b21610c37565b60043582526003602052600160a060020a03604083209116600160a060020a031982541617905580f35b50346104905780600319360112610490576020604051600160a060020a037f0000000000000000000000000000000000000000000000000000000000000000168152f35b5034610490578060031936011261049057610ba8610d86565b80600160a060020a038154811981168355167f8be0079c531659141344cd1fd0a4f28419497f9722a3daafe3b4186f6b6457e08280a380f35b503461049057602036600319011261049057600160a060020a036040602092600435815260038452205416604051908152f35b905034610410578160031936011261041057600160a060020a0360209254168152f35b60243590600160a060020a0382168203610c4d57565b600080fd5b60043590600160a060020a0382168203610c4d57565b3590600160a060020a0382168203610c4d57565b8054821015610c945760005260206000200190600090565b60e060020a634e487b7102600052603260045260246000fd5b90601f8019910116810190811067ffffffffffffffff82111761047357604052565b81601f82011215610c4d5780359067ffffffffffffffff9283831161047357604092835194602092610d05848085020188610cad565b8287528386818901940286010194818611610c4d578401925b858410610d2f575050505050505090565b8684830312610c4d578651908782019082821085831117610d6e57889287928452610d5987610c68565b81528287013583820152815201930192610d1e565b6024600060e060020a634e487b710281526041600452fd5b600160a060020a03600054163303610d9a57565b60646040517f08c379a000000000000000000000000000000000000000000000000000000000815260206004820152602060248201527f4f776e61626c653a2063616c6c6572206973206e6f7420746865206f776e65726044820152fd5b906002821015610e055752565b60e060020a634e487b7102600052602160045260246000fd5b6000198114610e2d5760010190565b60e060020a634e487b7102600052601160045260246000fd5b8051821015610c94576020809202010190565b90816020910312610c4d57518015158103610c4d579056fea26469706673582212208268841b455cd49da6695f57821e7e2746bea9d5cdfa7fc62ca370474834223c64736f6c63430008110033",
  "immutableReferences": {
    "1347": [
      {
        "length": 32,
        "start": 1484
      },
      {
        "length": 32,
        "start": 2923
      }
    ]
  },
  "source": "// SPDX-License-Identifier: MIT\r\npragma solidity ^0.8.17;\r\n\r\nimport {Data} from \"../libraries/Data.sol\";\r\nimport {IMetreon} from \"../interfaces/IMetreon.sol\";\r\nimport {MetreonReceiver} from \"../MetreonReceiver.sol\";\r\n\r\nimport {IERC20} from \"@openzeppelin/contracts/token/ERC20/IERC20.sol\";\r\n\r\ncontract Beamre is MetreonReceiver {\r\n    IMetreon private _metreon;\r\n\r\n    mapping(address => bytes32[]) public _actions;\r\n    mapping(uint256 => address) public _contracts;\r\n\r\n    constructor(address metreon_) MetreonReceiver(metreon_) {\r\n        _metreon = IMetreon(getMetreon());\r\n    }\r\n\r\n    function setContract(uint256 chainId, address contractId) external {\r\n        _contracts[chainId] = contractId;\r\n    }\r\n\r\n    function bridgeToken(\r\n        uint256 toChainId,\r\n        Data.Token[] memory tokens\r\n    ) external payable {\r\n        Data.OutgoingMessage memory message = Data.OutgoingMessage({\r\n            toChainId: toChainId,\r\n            receiver: _contracts[toChainId],\r\n            payload: abi.encode(_msgSender()),\r\n            tokens: tokens,\r\n            payMaster: Data.PayMaster.METREON_PAY\r\n        });\r\n\r\n        // uint256 fee = _metreon.estimateFee(toChainId);\r\n\r\n        for (uint256 index = 0; index < tokens.length; index++) {\r\n            Data.Token memory token = tokens[index];\r\n\r\n            IERC20 tokenContract = IERC20(token.tokenId);\r\n\r\n            tokenContract.transferFrom(\r\n                _msgSender(),\r\n                address(this),\r\n                token.amount\r\n            );\r\n\r\n            tokenContract.approve(address(_metreon), token.amount);\r\n        }\r\n\r\n        bytes32 messageId = _metreon.sendMessage(message);\r\n\r\n        _actions[_msgSender()].push(messageId);\r\n    }\r\n\r\n    function _metreonReceive(\r\n        Data.IncomingMessage memory message\r\n    ) internal override {\r\n        address receiver = abi.decode(message.payload, (address));\r\n\r\n        for (uint256 index = 0; index < message.tokens.length; index++) {\r\n            Data.Token memory token = message.tokens[index];\r\n\r\n            IERC20 tokenContract = IERC20(token.tokenId);\r\n            tokenContract.transfer(receiver, token.amount);\r\n        }\r\n    }\r\n}\r\n",
  "sourcePath": "C:\\Users\\DELL\\Documents\\metreon.hack.areon\\smart-contracts\\contracts\\beamre\\Beamre.sol",
  "compiler": {
    "name": "solc",
    "version": "0.8.17+commit.8df45f5f.Emscripten.clang"
  },
  "schemaVersion": "3.4.11",
  "updatedAt": "2024-01-23T00:50:15.201Z",
  "networkType": "ethereum",
  "devdoc": {
    "kind": "dev",
    "methods": {
      "owner()": {
        "details": "Returns the address of the current owner."
      },
      "renounceOwnership()": {
        "details": "Leaves the contract without owner. It will not be possible to call `onlyOwner` functions. Can only be called by the current owner. NOTE: Renouncing ownership will leave the contract without an owner, thereby disabling any functionality that is only available to the owner."
      },
      "transferOwnership(address)": {
        "details": "Transfers ownership of the contract to a new account (`newOwner`). Can only be called by the current owner."
      }
    },
    "version": 1
  },
  "userdoc": {
    "kind": "user",
    "methods": {},
    "version": 1
  }
}