{
  "contractName": "Supernova",
  "abi": [
    {
      "inputs": [
        {
          "internalType": "address",
          "name": "swayCall_",
          "type": "address"
        },
        {
          "internalType": "address",
          "name": "swayCallPay_",
          "type": "address"
        },
        {
          "internalType": "uint32",
          "name": "chainId_",
          "type": "uint32"
        }
      ],
      "stateMutability": "nonpayable",
      "type": "constructor"
    },
    {
      "anonymous": false,
      "inputs": [
        {
          "indexed": true,
          "internalType": "address",
          "name": "previousOwner",
          "type": "address"
        },
        {
          "indexed": true,
          "internalType": "address",
          "name": "newOwner",
          "type": "address"
        }
      ],
      "name": "OwnershipTransferStarted",
      "type": "event"
    },
    {
      "anonymous": false,
      "inputs": [
        {
          "indexed": true,
          "internalType": "address",
          "name": "previousOwner",
          "type": "address"
        },
        {
          "indexed": true,
          "internalType": "address",
          "name": "newOwner",
          "type": "address"
        }
      ],
      "name": "OwnershipTransferred",
      "type": "event"
    },
    {
      "inputs": [],
      "name": "acceptOwnership",
      "outputs": [],
      "stateMutability": "nonpayable",
      "type": "function"
    },
    {
      "inputs": [],
      "name": "owner",
      "outputs": [
        {
          "internalType": "address",
          "name": "",
          "type": "address"
        }
      ],
      "stateMutability": "view",
      "type": "function",
      "constant": true
    },
    {
      "inputs": [],
      "name": "pendingOwner",
      "outputs": [
        {
          "internalType": "address",
          "name": "",
          "type": "address"
        }
      ],
      "stateMutability": "view",
      "type": "function",
      "constant": true
    },
    {
      "inputs": [],
      "name": "renounceOwnership",
      "outputs": [],
      "stateMutability": "nonpayable",
      "type": "function"
    },
    {
      "inputs": [
        {
          "internalType": "address",
          "name": "newOwner",
          "type": "address"
        }
      ],
      "name": "transferOwnership",
      "outputs": [],
      "stateMutability": "nonpayable",
      "type": "function"
    },
    {
      "inputs": [
        {
          "internalType": "uint256",
          "name": "amount",
          "type": "uint256"
        },
        {
          "internalType": "address",
          "name": "token",
          "type": "address"
        }
      ],
      "name": "fund",
      "outputs": [],
      "stateMutability": "payable",
      "type": "function",
      "payable": true
    },
    {
      "inputs": [
        {
          "internalType": "uint32",
          "name": "destChainId",
          "type": "uint32"
        },
        {
          "internalType": "address",
          "name": "token",
          "type": "address"
        },
        {
          "internalType": "uint256",
          "name": "amount",
          "type": "uint256"
        },
        {
          "internalType": "bytes32",
          "name": "receiver",
          "type": "bytes32"
        }
      ],
      "name": "bridge",
      "outputs": [],
      "stateMutability": "payable",
      "type": "function",
      "payable": true
    },
    {
      "inputs": [
        {
          "internalType": "uint32",
          "name": "chainID",
          "type": "uint32"
        },
        {
          "internalType": "bytes32",
          "name": "contractId",
          "type": "bytes32"
        }
      ],
      "name": "addDestChain",
      "outputs": [],
      "stateMutability": "nonpayable",
      "type": "function"
    },
    {
      "inputs": [
        {
          "internalType": "uint256",
          "name": "",
          "type": "uint256"
        },
        {
          "components": [
            {
              "internalType": "uint32",
              "name": "slot0U32",
              "type": "uint32"
            },
            {
              "internalType": "uint32",
              "name": "slot1U32",
              "type": "uint32"
            },
            {
              "internalType": "uint256",
              "name": "slot0U64",
              "type": "uint256"
            },
            {
              "internalType": "uint256",
              "name": "slot1U64",
              "type": "uint256"
            },
            {
              "internalType": "uint256",
              "name": "slot2U64",
              "type": "uint256"
            },
            {
              "internalType": "bytes32",
              "name": "slot0B256",
              "type": "bytes32"
            },
            {
              "internalType": "bytes32",
              "name": "slot1B256",
              "type": "bytes32"
            },
            {
              "internalType": "bytes32",
              "name": "slot2B256",
              "type": "bytes32"
            },
            {
              "internalType": "bytes32",
              "name": "slot3B256",
              "type": "bytes32"
            }
          ],
          "internalType": "struct Structs.SCPayloadData",
          "name": "data",
          "type": "tuple"
        }
      ],
      "name": "execute",
      "outputs": [],
      "stateMutability": "nonpayable",
      "type": "function"
    },
    {
      "inputs": [
        {
          "internalType": "bytes32",
          "name": "token0",
          "type": "bytes32"
        },
        {
          "internalType": "address",
          "name": "token1",
          "type": "address"
        }
      ],
      "name": "addPair",
      "outputs": [],
      "stateMutability": "nonpayable",
      "type": "function"
    },
    {
      "inputs": [
        {
          "internalType": "bytes",
          "name": "data",
          "type": "bytes"
        }
      ],
      "name": "onResult",
      "outputs": [],
      "stateMutability": "nonpayable",
      "type": "function"
    },
    {
      "inputs": [],
      "name": "feePayer",
      "outputs": [
        {
          "internalType": "address",
          "name": "",
          "type": "address"
        }
      ],
      "stateMutability": "view",
      "type": "function",
      "constant": true
    },
    {
      "inputs": [],
      "name": "feeIdentifier",
      "outputs": [
        {
          "internalType": "string",
          "name": "",
          "type": "string"
        }
      ],
      "stateMutability": "pure",
      "type": "function",
      "constant": true
    }
  ],
  "bytecode": "0x60a06040523480156200001157600080fd5b5060405162001d1a38038062001d1a8339818101604052810190620000379190620002ab565b620000576200004b620000f660201b60201c565b620000fe60201b60201c565b82600460006101000a81548173ffffffffffffffffffffffffffffffffffffffff021916908373ffffffffffffffffffffffffffffffffffffffff16021790555081600560006101000a81548173ffffffffffffffffffffffffffffffffffffffff021916908373ffffffffffffffffffffffffffffffffffffffff1602179055508063ffffffff1660808163ffffffff168152505050505062000307565b600033905090565b600160006101000a81549073ffffffffffffffffffffffffffffffffffffffff021916905562000139816200013c60201b62000a171760201c565b50565b60008060009054906101000a900473ffffffffffffffffffffffffffffffffffffffff169050816000806101000a81548173ffffffffffffffffffffffffffffffffffffffff021916908373ffffffffffffffffffffffffffffffffffffffff1602179055508173ffffffffffffffffffffffffffffffffffffffff168173ffffffffffffffffffffffffffffffffffffffff167f8be0079c531659141344cd1fd0a4f28419497f9722a3daafe3b4186f6b6457e060405160405180910390a35050565b600080fd5b600073ffffffffffffffffffffffffffffffffffffffff82169050919050565b6000620002328262000205565b9050919050565b620002448162000225565b81146200025057600080fd5b50565b600081519050620002648162000239565b92915050565b600063ffffffff82169050919050565b62000285816200026a565b81146200029157600080fd5b50565b600081519050620002a5816200027a565b92915050565b600080600060608486031215620002c757620002c662000200565b5b6000620002d78682870162000253565b9350506020620002ea8682870162000253565b9250506040620002fd8682870162000294565b9150509250925092565b6080516119fa62000320600039600050506119fa6000f3fe6080604052600436106100c25760003560e01c80638da5cb5b1161007f578063dfb0b5d511610059578063dfb0b5d51461021a578063e30c397814610236578063eee9239514610261578063f2fde38b1461027d576100c2565b80638da5cb5b1461019b578063b2df2a9d146101c6578063dd4c6602146101f1576100c2565b806356ad3126146100c7578063632b90bd146100f057806370f92ec614610119578063715018a61461014457806379ba50971461015b57806382408bb814610172575b600080fd5b3480156100d357600080fd5b506100ee60048036038101906100e99190610f19565b6102a6565b005b3480156100fc57600080fd5b5061011760048036038101906101129190610f95565b610304565b005b34801561012557600080fd5b5061012e610334565b60405161013b9190610fe4565b60405180910390f35b34801561015057600080fd5b50610159610343565b005b34801561016757600080fd5b50610170610357565b005b34801561017e57600080fd5b5061019960048036038101906101949190611145565b6103e4565b005b3480156101a757600080fd5b506101b06103e7565b6040516101bd9190610fe4565b60405180910390f35b3480156101d257600080fd5b506101db610410565b6040516101e8919061120d565b60405180910390f35b3480156101fd57600080fd5b506102186004803603810190610213919061128a565b61044d565b005b610234600480360381019061022f91906112cb565b610701565b005b34801561024257600080fd5b5061024b610808565b6040516102589190610fe4565b60405180910390f35b61027b60048036038101906102769190611332565b610832565b005b34801561028957600080fd5b506102a4600480360381019061029f9190611372565b61096a565b005b6102ae610adb565b806002600084815260200190815260200160002060006101000a81548173ffffffffffffffffffffffffffffffffffffffff021916908373ffffffffffffffffffffffffffffffffffffffff1602179055505050565b61030c610adb565b80600360008463ffffffff1663ffffffff168152602001908152602001600020819055505050565b600061033e6103e7565b905090565b61034b610adb565b6103556000610b59565b565b6000610361610b8a565b90508073ffffffffffffffffffffffffffffffffffffffff16610382610808565b73ffffffffffffffffffffffffffffffffffffffff16146103d8576040517f08c379a00000000000000000000000000000000000000000000000000000000081526004016103cf90611411565b60405180910390fd5b6103e181610b59565b50565b50565b60008060009054906101000a900473ffffffffffffffffffffffffffffffffffffffff16905090565b60606040518060400160405280600d81526020017f53757065726e6f76612044457800000000000000000000000000000000000000815250905090565b60008160400135905060008260a001359050600061046e8460c00135610b92565b905060006002600084815260200190815260200160002060009054906101000a900473ffffffffffffffffffffffffffffffffffffffff16905083600660008373ffffffffffffffffffffffffffffffffffffffff1673ffffffffffffffffffffffffffffffffffffffff16815260200190815260200160002054101561052a576040517f08c379a00000000000000000000000000000000000000000000000000000000081526004016105219061147d565b60405180910390fd5b83600660008373ffffffffffffffffffffffffffffffffffffffff1673ffffffffffffffffffffffffffffffffffffffff168152602001908152602001600020600082825461057991906114cc565b9250508190555073eeeeeeeeeeeeeeeeeeeeeeeeeeeeeeeeeeeeeeee73ffffffffffffffffffffffffffffffffffffffff168173ffffffffffffffffffffffffffffffffffffffff16036106795760008273ffffffffffffffffffffffffffffffffffffffff16856040516105ed90611531565b60006040518083038185875af1925050503d806000811461062a576040519150601f19603f3d011682016040523d82523d6000602084013e61062f565b606091505b5050905080610673576040517f08c379a000000000000000000000000000000000000000000000000000000000815260040161066a90611592565b60405180910390fd5b506106f9565b8073ffffffffffffffffffffffffffffffffffffffff1663a9059cbb83866040518363ffffffff1660e01b81526004016106b49291906115c1565b6020604051808303816000875af11580156106d3573d6000803e3d6000fd5b505050506040513d601f19601f820116820180604052508101906106f79190611622565b505b505050505050565b73eeeeeeeeeeeeeeeeeeeeeeeeeeeeeeeeeeeeeeee73ffffffffffffffffffffffffffffffffffffffff168373ffffffffffffffffffffffffffffffffffffffff160361076d576107688473eeeeeeeeeeeeeeeeeeeeeeeeeeeeeeeeeeeeeeee3484610b9f565b610802565b8273ffffffffffffffffffffffffffffffffffffffff166323b872dd610791610b8a565b30856040518463ffffffff1660e01b81526004016107b19392919061164f565b6020604051808303816000875af11580156107d0573d6000803e3d6000fd5b505050506040513d601f19601f820116820180604052508101906107f49190611622565b5061080184848484610b9f565b5b50505050565b6000600160009054906101000a900473ffffffffffffffffffffffffffffffffffffffff16905090565b600082905073eeeeeeeeeeeeeeeeeeeeeeeeeeeeeeeeeeeeeeee73ffffffffffffffffffffffffffffffffffffffff168273ffffffffffffffffffffffffffffffffffffffff16036108865734905061090f565b8173ffffffffffffffffffffffffffffffffffffffff166323b872dd6108aa610b8a565b30866040518463ffffffff1660e01b81526004016108ca9392919061164f565b6020604051808303816000875af11580156108e9573d6000803e3d6000fd5b505050506040513d601f19601f8201168201806040525081019061090d9190611622565b505b82600660008473ffffffffffffffffffffffffffffffffffffffff1673ffffffffffffffffffffffffffffffffffffffff168152602001908152602001600020600082825461095e9190611686565b92505081905550505050565b610972610adb565b80600160006101000a81548173ffffffffffffffffffffffffffffffffffffffff021916908373ffffffffffffffffffffffffffffffffffffffff1602179055508073ffffffffffffffffffffffffffffffffffffffff166109d26103e7565b73ffffffffffffffffffffffffffffffffffffffff167f38d16b8cac22d99fc7c124b9cd0de2d3fa1faef420bfe791d8c362d765e2270060405160405180910390a350565b60008060009054906101000a900473ffffffffffffffffffffffffffffffffffffffff169050816000806101000a81548173ffffffffffffffffffffffffffffffffffffffff021916908373ffffffffffffffffffffffffffffffffffffffff1602179055508173ffffffffffffffffffffffffffffffffffffffff168173ffffffffffffffffffffffffffffffffffffffff167f8be0079c531659141344cd1fd0a4f28419497f9722a3daafe3b4186f6b6457e060405160405180910390a35050565b610ae3610b8a565b73ffffffffffffffffffffffffffffffffffffffff16610b016103e7565b73ffffffffffffffffffffffffffffffffffffffff1614610b57576040517f08c379a0000000000000000000000000000000000000000000000000000000008152600401610b4e90611706565b60405180910390fd5b565b600160006101000a81549073ffffffffffffffffffffffffffffffffffffffff0219169055610b8781610a17565b50565b600033905090565b60008160001c9050919050565b6000600360008663ffffffff1663ffffffff16815260200190815260200160002050602060ff1603610c06576040517f08c379a0000000000000000000000000000000000000000000000000000000008152600401610bfd90611772565b60405180910390fd5b81600660008573ffffffffffffffffffffffffffffffffffffffff1673ffffffffffffffffffffffffffffffffffffffff1681526020019081526020016000206000828254610c559190611686565b925050819055506000600360008663ffffffff1663ffffffff1681526020019081526020016000205490506000604051806101200160405280600063ffffffff168152602001600063ffffffff168152602001633b9aca0086610cb891906117c1565b81526020016000815260200160008152602001610cea8773ffffffffffffffffffffffffffffffffffffffff16610e4e565b815260200184815260200160008019168152602001600080191681525090506000600560009054906101000a900473ffffffffffffffffffffffffffffffffffffffff1673ffffffffffffffffffffffffffffffffffffffff16639fa2306688306040518363ffffffff1660e01b8152600401610d68929190611801565b6020604051808303816000875af1158015610d87573d6000803e3d6000fd5b505050506040513d601f19601f82011682018060405250810190610dab919061183f565b9050600460009054906101000a900473ffffffffffffffffffffffffffffffffffffffff1673ffffffffffffffffffffffffffffffffffffffff1663777307678430858b6001876040518763ffffffff1660e01b8152600401610e139695949392919061195f565b600060405180830381600087803b158015610e2d57600080fd5b505af1158015610e41573d6000803e3d6000fd5b5050505050505050505050565b60008173ffffffffffffffffffffffffffffffffffffffff1660001b9050919050565b6000604051905090565b600080fd5b600080fd5b6000819050919050565b610e9881610e85565b8114610ea357600080fd5b50565b600081359050610eb581610e8f565b92915050565b600073ffffffffffffffffffffffffffffffffffffffff82169050919050565b6000610ee682610ebb565b9050919050565b610ef681610edb565b8114610f0157600080fd5b50565b600081359050610f1381610eed565b92915050565b60008060408385031215610f3057610f2f610e7b565b5b6000610f3e85828601610ea6565b9250506020610f4f85828601610f04565b9150509250929050565b600063ffffffff82169050919050565b610f7281610f59565b8114610f7d57600080fd5b50565b600081359050610f8f81610f69565b92915050565b60008060408385031215610fac57610fab610e7b565b5b6000610fba85828601610f80565b9250506020610fcb85828601610ea6565b9150509250929050565b610fde81610edb565b82525050565b6000602082019050610ff96000830184610fd5565b92915050565b600080fd5b600080fd5b6000601f19601f8301169050919050565b7f4e487b7100000000000000000000000000000000000000000000000000000000600052604160045260246000fd5b61105282611009565b810181811067ffffffffffffffff821117156110715761107061101a565b5b80604052505050565b6000611084610e71565b90506110908282611049565b919050565b600067ffffffffffffffff8211156110b0576110af61101a565b5b6110b982611009565b9050602081019050919050565b82818337600083830152505050565b60006110e86110e384611095565b61107a565b90508281526020810184848401111561110457611103611004565b5b61110f8482856110c6565b509392505050565b600082601f83011261112c5761112b610fff565b5b813561113c8482602086016110d5565b91505092915050565b60006020828403121561115b5761115a610e7b565b5b600082013567ffffffffffffffff81111561117957611178610e80565b5b61118584828501611117565b91505092915050565b600081519050919050565b600082825260208201905092915050565b60005b838110156111c85780820151818401526020810190506111ad565b60008484015250505050565b60006111df8261118e565b6111e98185611199565b93506111f98185602086016111aa565b61120281611009565b840191505092915050565b6000602082019050818103600083015261122781846111d4565b905092915050565b6000819050919050565b6112428161122f565b811461124d57600080fd5b50565b60008135905061125f81611239565b92915050565b600080fd5b6000610120828403121561128157611280611265565b5b81905092915050565b60008061014083850312156112a2576112a1610e7b565b5b60006112b085828601611250565b92505060206112c18582860161126a565b9150509250929050565b600080600080608085870312156112e5576112e4610e7b565b5b60006112f387828801610f80565b945050602061130487828801610f04565b935050604061131587828801611250565b925050606061132687828801610ea6565b91505092959194509250565b6000806040838503121561134957611348610e7b565b5b600061135785828601611250565b925050602061136885828601610f04565b9150509250929050565b60006020828403121561138857611387610e7b565b5b600061139684828501610f04565b91505092915050565b7f4f776e61626c6532537465703a2063616c6c6572206973206e6f74207468652060008201527f6e6577206f776e65720000000000000000000000000000000000000000000000602082015250565b60006113fb602983611199565b91506114068261139f565b604082019050919050565b6000602082019050818103600083015261142a816113ee565b9050919050565b7f494e53554646494349454e545f414d4f554e5400000000000000000000000000600082015250565b6000611467601383611199565b915061147282611431565b602082019050919050565b600060208201905081810360008301526114968161145a565b9050919050565b7f4e487b7100000000000000000000000000000000000000000000000000000000600052601160045260246000fd5b60006114d78261122f565b91506114e28361122f565b92508282039050818111156114fa576114f961149d565b5b92915050565b600081905092915050565b50565b600061151b600083611500565b91506115268261150b565b600082019050919050565b600061153c8261150e565b9150819050919050565b7f5452414e534645525f4641494c45445f45544800000000000000000000000000600082015250565b600061157c601383611199565b915061158782611546565b602082019050919050565b600060208201905081810360008301526115ab8161156f565b9050919050565b6115bb8161122f565b82525050565b60006040820190506115d66000830185610fd5565b6115e360208301846115b2565b9392505050565b60008115159050919050565b6115ff816115ea565b811461160a57600080fd5b50565b60008151905061161c816115f6565b92915050565b60006020828403121561163857611637610e7b565b5b60006116468482850161160d565b91505092915050565b60006060820190506116646000830186610fd5565b6116716020830185610fd5565b61167e60408301846115b2565b949350505050565b60006116918261122f565b915061169c8361122f565b92508282019050808211156116b4576116b361149d565b5b92915050565b7f4f776e61626c653a2063616c6c6572206973206e6f7420746865206f776e6572600082015250565b60006116f0602083611199565b91506116fb826116ba565b602082019050919050565b6000602082019050818103600083015261171f816116e3565b9050919050565b7f4e4f5f444553545f434841494e00000000000000000000000000000000000000600082015250565b600061175c600d83611199565b915061176782611726565b602082019050919050565b6000602082019050818103600083015261178b8161174f565b9050919050565b7f4e487b7100000000000000000000000000000000000000000000000000000000600052601260045260246000fd5b60006117cc8261122f565b91506117d78361122f565b9250826117e7576117e6611792565b5b828204905092915050565b6117fb81610f59565b82525050565b600060408201905061181660008301856117f2565b6118236020830184610fd5565b9392505050565b60008151905061183981611239565b92915050565b60006020828403121561185557611854610e7b565b5b60006118638482850161182a565b91505092915050565b61187581610e85565b82525050565b61188481610f59565b82525050565b6118938161122f565b82525050565b6118a281610e85565b82525050565b610120820160008201516118bf600085018261187b565b5060208201516118d2602085018261187b565b5060408201516118e5604085018261188a565b5060608201516118f8606085018261188a565b50608082015161190b608085018261188a565b5060a082015161191e60a0850182611899565b5060c082015161193160c0850182611899565b5060e082015161194460e0850182611899565b50610100820151611959610100850182611899565b50505050565b60006101c082019050611975600083018961186c565b6119826020830188610fd5565b61198f60408301876118a8565b61199d6101608301866117f2565b6119ab6101808301856117f2565b6119b96101a08301846115b2565b97965050505050505056fea2646970667358221220b21c4af3a9ca708fa2b054357b526e6a8d65f84799ed0cfb2004d490d6d83b6764736f6c63430008110033",
  "immutableReferences": {},
  "source": "// SPDX-License-Identifier: MIT\r\npragma solidity ^0.8.17;\r\n\r\nimport \"./libraries/Message.sol\";\r\nimport \"./libraries/TypeCasts.sol\";\r\nimport \"./libraries/CallFlags.sol\";\r\nimport \"./libraries/Structs.sol\";\r\n\r\nimport \"./interfaces/ISwayCall.sol\";\r\nimport \"./interfaces/ISwayCallApp.sol\";\r\n\r\nimport \"./interfaces/ISwayCallPay.sol\";\r\n\r\nimport \"@openzeppelin/contracts/utils/Context.sol\";\r\nimport \"@openzeppelin/contracts/access/Ownable2Step.sol\";\r\nimport \"@openzeppelin/contracts/token/ERC20/ERC20.sol\";\r\n\r\ncontract Supernova is Context, Ownable2Step, ISwayCallApp {\r\n    using Message for bytes;\r\n    using TypeCasts for bytes32;\r\n    using TypeCasts for address;\r\n\r\n    uint32 private immutable CHAIN_ID;\r\n    address private constant NATIVE =\r\n        0xEeeeeEeeeEeEeeEeEeEeeEEEeeeeEeeeeeeeEEeE;\r\n\r\n    mapping(bytes32 => address) private _pairs;\r\n    mapping(uint32 => bytes32) private _destChains;\r\n\r\n    ISwayCall private _swayCall;\r\n    ISwayCallPay private _swayCallPay;\r\n\r\n    constructor(\r\n        address swayCall_,\r\n        address swayCallPay_,\r\n        uint32 chainId_\r\n    ) Ownable2Step() {\r\n        _swayCall = ISwayCall(swayCall_);\r\n        _swayCallPay = ISwayCallPay(swayCallPay_);\r\n        CHAIN_ID = chainId_;\r\n    }\r\n\r\n    mapping(address => uint256) private _reserves;\r\n\r\n    function fund(uint256 amount, address token) external payable {\r\n        uint256 _amount = amount;\r\n\r\n        if (token == NATIVE) {\r\n            _amount = msg.value;\r\n        } else {\r\n            IERC20(token).transferFrom(_msgSender(), address(this), amount);\r\n        }\r\n\r\n        _reserves[token] += amount;\r\n    }\r\n\r\n    function bridge(\r\n        uint32 destChainId,\r\n        address token,\r\n        uint256 amount,\r\n        bytes32 receiver\r\n    ) external payable {\r\n        if (token == NATIVE) {\r\n            _bridge(destChainId, NATIVE, msg.value, receiver);\r\n        } else {\r\n            IERC20(token).transferFrom(_msgSender(), address(this), amount);\r\n            _bridge(destChainId, token, amount, receiver);\r\n        }\r\n    }\r\n\r\n    function _bridge(\r\n        uint32 destChainId,\r\n        address token,\r\n        uint256 amount,\r\n        bytes32 receiver\r\n    ) private {\r\n        require(_destChains[destChainId].length != 0, \"NO_DEST_CHAIN\");\r\n\r\n        _reserves[token] += amount;\r\n\r\n        bytes32 destContractId = _destChains[destChainId];\r\n        Structs.SCPayloadData memory data = Structs.SCPayloadData({\r\n            slot0U32: 0,\r\n            slot1U32: 0,\r\n            slot0U64: (amount / 1_000_000_000),\r\n            slot1U64: 0,\r\n            slot2U64: 0,\r\n            slot0B256: token.addressToBytes32(),\r\n            slot1B256: receiver,\r\n            slot2B256: \"\",\r\n            slot3B256: \"\"\r\n        });\r\n\r\n        // pay gas\r\n        uint256 receiptId = _swayCallPay.payGas(destChainId, address(this));\r\n\r\n        // dispatch\r\n        _swayCall.swayDispatch(\r\n            destContractId,\r\n            address(this),\r\n            data,\r\n            destChainId,\r\n            CallFlags.PAY_FROM_SWAYCALL,\r\n            receiptId\r\n        );\r\n    }\r\n\r\n    function addDestChain(\r\n        uint32 chainID,\r\n        bytes32 contractId\r\n    ) external onlyOwner {\r\n        _destChains[chainID] = contractId;\r\n    }\r\n\r\n    // SwayCall execute\r\n    function execute(\r\n        uint256, // fromChainId\r\n        Structs.SCPayloadData calldata data\r\n    ) external override {\r\n        uint256 amount = data.slot0U64;\r\n        bytes32 token = data.slot0B256;\r\n        address receiver = data.slot1B256.bytes32ToAddress();\r\n\r\n        address pair = _pairs[token];\r\n        require(_reserves[pair] >= amount, \"INSUFFICIENT_AMOUNT\");\r\n\r\n        _reserves[pair] -= amount;\r\n\r\n        if (pair == NATIVE) {\r\n            (bool success, ) = receiver.call{value: amount}(\"\");\r\n            require(success, \"TRANSFER_FAILED_ETH\");\r\n        } else {\r\n            IERC20(pair).transfer(receiver, amount);\r\n        }\r\n    }\r\n\r\n    function addPair(bytes32 token0, address token1) external onlyOwner {\r\n        _pairs[token0] = token1;\r\n    }\r\n\r\n    // SwayCall result\r\n    function onResult(bytes memory data) external {}\r\n\r\n    function feePayer() external view override returns (address) {\r\n        return owner();\r\n    }\r\n\r\n    function feeIdentifier() external pure override returns (string memory) {\r\n        return \"Supernova DEx\";\r\n    }\r\n}\r\n",
  "sourcePath": "C:\\Users\\DELL\\Documents\\swaycall\\solidity\\supernova\\contracts\\Supernova.sol",
  "compiler": {
    "name": "solc",
    "version": "0.8.17+commit.8df45f5f.Emscripten.clang"
  },
  "schemaVersion": "3.4.11",
  "updatedAt": "2023-07-31T23:42:56.849Z",
  "networkType": "ethereum",
  "devdoc": {
    "kind": "dev",
    "methods": {
      "acceptOwnership()": {
        "details": "The new owner accepts the ownership transfer."
      },
      "owner()": {
        "details": "Returns the address of the current owner."
      },
      "pendingOwner()": {
        "details": "Returns the address of the pending owner."
      },
      "renounceOwnership()": {
        "details": "Leaves the contract without owner. It will not be possible to call `onlyOwner` functions. Can only be called by the current owner. NOTE: Renouncing ownership will leave the contract without an owner, thereby disabling any functionality that is only available to the owner."
      },
      "transferOwnership(address)": {
        "details": "Starts the ownership transfer of the contract to a new account. Replaces the pending transfer if there is one. Can only be called by the current owner."
      }
    },
    "version": 1
  },
  "userdoc": {
    "kind": "user",
    "methods": {},
    "version": 1
  }
}