{
  "contractName": "Beamre",
  "abi": [
    {
      "inputs": [
        {
          "internalType": "address",
          "name": "metreon_",
          "type": "address"
        }
      ],
      "stateMutability": "nonpayable",
      "type": "constructor"
    },
    {
      "inputs": [
        {
          "internalType": "address",
          "name": "router",
          "type": "address"
        }
      ],
      "name": "InvalidRouter",
      "type": "error"
    },
    {
      "anonymous": false,
      "inputs": [
        {
          "indexed": true,
          "internalType": "address",
          "name": "previousOwner",
          "type": "address"
        },
        {
          "indexed": true,
          "internalType": "address",
          "name": "newOwner",
          "type": "address"
        }
      ],
      "name": "OwnershipTransferred",
      "type": "event"
    },
    {
      "inputs": [
        {
          "internalType": "address",
          "name": "",
          "type": "address"
        },
        {
          "internalType": "uint256",
          "name": "",
          "type": "uint256"
        }
      ],
      "name": "_actions",
      "outputs": [
        {
          "internalType": "bytes32",
          "name": "",
          "type": "bytes32"
        }
      ],
      "stateMutability": "view",
      "type": "function",
      "constant": true
    },
    {
      "inputs": [
        {
          "internalType": "uint256",
          "name": "",
          "type": "uint256"
        }
      ],
      "name": "_contracts",
      "outputs": [
        {
          "internalType": "address",
          "name": "",
          "type": "address"
        }
      ],
      "stateMutability": "view",
      "type": "function",
      "constant": true
    },
    {
      "inputs": [],
      "name": "getMetreon",
      "outputs": [
        {
          "internalType": "address",
          "name": "",
          "type": "address"
        }
      ],
      "stateMutability": "view",
      "type": "function",
      "constant": true
    },
    {
      "inputs": [],
      "name": "metreonPayMaster",
      "outputs": [
        {
          "internalType": "address",
          "name": "",
          "type": "address"
        }
      ],
      "stateMutability": "view",
      "type": "function",
      "constant": true
    },
    {
      "inputs": [
        {
          "components": [
            {
              "internalType": "bytes32",
              "name": "messageId",
              "type": "bytes32"
            },
            {
              "internalType": "uint256",
              "name": "fromChainId",
              "type": "uint256"
            },
            {
              "internalType": "address",
              "name": "sender",
              "type": "address"
            },
            {
              "internalType": "bytes",
              "name": "payload",
              "type": "bytes"
            },
            {
              "components": [
                {
                  "internalType": "address",
                  "name": "tokenId",
                  "type": "address"
                },
                {
                  "internalType": "uint256",
                  "name": "amount",
                  "type": "uint256"
                }
              ],
              "internalType": "struct Data.Token[]",
              "name": "tokens",
              "type": "tuple[]"
            },
            {
              "internalType": "enum Data.PayMaster",
              "name": "payMaster",
              "type": "uint8"
            }
          ],
          "internalType": "struct Data.IncomingMessage",
          "name": "message",
          "type": "tuple"
        },
        {
          "internalType": "address",
          "name": "tokenPool",
          "type": "address"
        }
      ],
      "name": "metreonReceive",
      "outputs": [],
      "stateMutability": "nonpayable",
      "type": "function"
    },
    {
      "inputs": [],
      "name": "owner",
      "outputs": [
        {
          "internalType": "address",
          "name": "",
          "type": "address"
        }
      ],
      "stateMutability": "view",
      "type": "function",
      "constant": true
    },
    {
      "inputs": [],
      "name": "renounceOwnership",
      "outputs": [],
      "stateMutability": "nonpayable",
      "type": "function"
    },
    {
      "inputs": [
        {
          "internalType": "address",
          "name": "newOwner",
          "type": "address"
        }
      ],
      "name": "transferOwnership",
      "outputs": [],
      "stateMutability": "nonpayable",
      "type": "function"
    },
    {
      "inputs": [
        {
          "internalType": "uint256",
          "name": "toChainId",
          "type": "uint256"
        },
        {
          "components": [
            {
              "internalType": "address",
              "name": "tokenId",
              "type": "address"
            },
            {
              "internalType": "uint256",
              "name": "amount",
              "type": "uint256"
            }
          ],
          "internalType": "struct Data.Token[]",
          "name": "tokens",
          "type": "tuple[]"
        }
      ],
      "name": "bridgeToken",
      "outputs": [],
      "stateMutability": "payable",
      "type": "function",
      "payable": true
    }
  ],
  "bytecode": "0x60a0346100f457610f7680380390601f19601f83011683019183831067ffffffffffffffff8411176100f9578084926020946040528339810103126100f45751600160a060020a03808216918281036100f45760005491600160a060020a0319923384821617600055604051913391167f8be0079c531659141344cd1fd0a4f28419497f9722a3daafe3b4186f6b6457e0600080a383156100c557506080526001541617600155604051610e4d908161012982396080518181816105cc0152610b270152f35b807fd7f73334000000000000000000000000000000000000000000000000000000006024925260006004820152fd5b600080fd5b7f4e487b7100000000000000000000000000000000000000000000000000000000600052604160045260246000fdfe608080604052600436101561001357600080fd5b6000907c01000000000000000000000000000000000000000000000000000000008235049081635c72a56914610bd05750806367acd8a014610b9d578063715018a614610b4b578063737fb66b14610b075780638da5cb5b14610ae1578063b2bfc83514610a87578063e6f234f61461057c578063f2fde38b146104885763f31c1448146100a057600080fd5b60403660031901126104855767ffffffffffffffff600435602435828111610481576100d0903690600401610c75565b908084526003602052600160a060020a03604085205416906040519333602086015260208552846040810110816040870111176104685760e085019081116040860182101761046857604052604084015260608301528160808101528060a0830152600160c0830152825b815181101561028c5761014e8183610dec565b51906020600160a060020a03835116920191825192604051937f23b872dd00000000000000000000000000000000000000000000000000000000855233600486015230602486015260448501526020846064818a865af19182156102815761020b94602093610264575b5060015491516040517f095ea7b3000000000000000000000000000000000000000000000000000000008152600160a060020a039093166004840152602483015290938491908290899082906044820190565b03925af1918215610259576102259261022a575b50610dc4565b61013b565b61024b9060203d602011610252575b6102438183610c53565b810190610dff565b503861021f565b503d610239565b6040513d87823e3d90fd5b61027a90843d8611610252576102438183610c53565b50386101b8565b6040513d89823e3d90fd5b50508190600160a060020a0360015416906040519283917fff9ec5fa0000000000000000000000000000000000000000000000000000000083526020600484015260408101516024840152600160a060020a036060820151166044840152608081015160a060648501528051908160c4860152835b82811061044d5750508260e48286010152601f801991011683019060e48201602061010460a08401519460c0888203016084890152855180945201930190845b81811061041c575050509183809261036460c060209896015160a4840190610d9e565b03925af19081156104115782916103db575b50338252600260205260408220805490680100000000000000008210156103c457906103a791600182018155610c22565b600882939254910260020a91828503928391021691191617905580f35b60248460e060020a634e487b710281526041600452fd5b90506020813d602011610409575b816103f660209383610c53565b81010312610405575138610376565b5080fd5b3d91506103e9565b6040513d84823e3d90fd5b82518051600160a060020a03168652602090810151818701528997508a965060409095019490920191600101610341565b602081830181015160e48a8401015288965089955001610301565b60e060020a634e487b7102600052604160045260246000fd5b8380fd5b80fd5b5034610485576020366003190112610485576104a2610bf3565b6104aa610d2c565b600160a060020a038091169081156104f85760005482600160a060020a0319821617600055167f8be0079c531659141344cd1fd0a4f28419497f9722a3daafe3b4186f6b6457e0600080a380f35b60846040517f08c379a000000000000000000000000000000000000000000000000000000000815260206004820152602660248201527f4f776e61626c653a206e6577206f776e657220697320746865207a65726f206160448201527f64647265737300000000000000000000000000000000000000000000000000006064820152fd5b5034610485576003196040368201126104055767ffffffffffffffff600435116104055760c0906004353603011261048557602435600160a060020a03811681036104055733600160a060020a037f00000000000000000000000000000000000000000000000000000000000000001603610a57576040519060c0820182811067ffffffffffffffff8211176103c457604052600435600401358252602460043501356020830152610632604460043501610c0e565b604083015267ffffffffffffffff6064600435013511610a3c57366004356064810135016023011215610a3c5767ffffffffffffffff60048035606481013501013511610a405760405161069b600480356064810135010135601f01601f191660200182610c53565b6004803560648101350190810135808352369101602401116104815760048035606481013501908101359060240160208301378360206004606481350135813501013583010152606083015267ffffffffffffffff6084600435013511610a3c57610710366004803560848101350101610c75565b6080830152600260a460043501351015610a3c5760a4600435013560a08301526060820151602081805181010312610481576020015190600160a060020a03821682036104815783805b6080850151805182101561080b576107dc61077783602093610dec565b5182600160a060020a038251169101516040519586809481937fa9059cbb000000000000000000000000000000000000000000000000000000008352600160a060020a038c166004840160209093929193600160a060020a0360408201951681520152565b03925af1908115610800576080926107f89261022a5750610dc4565b85915061075a565b6040513d88823e3d90fd5b82846022196004353603016084600435013512156104055760048035608481013501013567ffffffffffffffff8111610a3c5760408102360360043560848101350160240113610a3c5761085d575080f35b600160a060020a0381163b1561040557604051907f25ed576d00000000000000000000000000000000000000000000000000000000825230600483015260406024830152600435600401356044830152602460043501356064830152600160a060020a036108cf604460043501610c0e565b166084830152602219600435360301606460043501351215610a3c5760043560646004350135016024600482013591019067ffffffffffffffff8111610a38578036038213610a385760c060a48501528061010485015280610124928386013784828286010152601f801991011683019081016004356084600435013501906024600483013592019267ffffffffffffffff8311610a34576040830236038413610a345791610144838288969460e0888c9a98030160c489015252019190855b8181106109f75750505083600160a060020a038480936109b860e4830160a46004350135610d9e565b0393165af18015610411576109cb575080f35b67ffffffffffffffff81116109e05760405280f35b60248260e060020a634e487b710281526041600452fd5b926040919496508295508190600160a060020a03610a16600195610c0e565b1681526020870135602082015201940191019086949286949261098f565b8680fd5b8480fd5b8280fd5b60248360e060020a634e487b710281526041600452fd5b60246040517fd7f73334000000000000000000000000000000000000000000000000000000008152336004820152fd5b503461048557604036600319011261048557610aa1610bf3565b600160a060020a0316815260026020526040812080546024359290831015610485576020610acf8484610c22565b90546008604051920260020a90048152f35b5034610485578060031936011261048557600160a060020a036020915416604051908152f35b50346104855780600319360112610485576020604051600160a060020a037f0000000000000000000000000000000000000000000000000000000000000000168152f35b5034610485578060031936011261048557610b64610d2c565b80600160a060020a038154811981168355167f8be0079c531659141344cd1fd0a4f28419497f9722a3daafe3b4186f6b6457e08280a380f35b503461048557602036600319011261048557600160a060020a036040602092600435815260038452205416604051908152f35b905034610405578160031936011261040557600160a060020a0360209254168152f35b60043590600160a060020a0382168203610c0957565b600080fd5b3590600160a060020a0382168203610c0957565b8054821015610c3a5760005260206000200190600090565b60e060020a634e487b7102600052603260045260246000fd5b90601f8019910116810190811067ffffffffffffffff82111761046857604052565b81601f82011215610c095780359067ffffffffffffffff9283831161046857604092835194602092610cab848085020188610c53565b8287528386818901940286010194818611610c09578401925b858410610cd5575050505050505090565b8684830312610c09578651908782019082821085831117610d1457889287928452610cff87610c0e565b81528287013583820152815201930192610cc4565b6024600060e060020a634e487b710281526041600452fd5b600160a060020a03600054163303610d4057565b60646040517f08c379a000000000000000000000000000000000000000000000000000000000815260206004820152602060248201527f4f776e61626c653a2063616c6c6572206973206e6f7420746865206f776e65726044820152fd5b906002821015610dab5752565b60e060020a634e487b7102600052602160045260246000fd5b6000198114610dd35760010190565b60e060020a634e487b7102600052601160045260246000fd5b8051821015610c3a576020809202010190565b90816020910312610c0957518015158103610c09579056fea264697066735822122093be3c1c2a42678c141906f9500666f759f0d6821becbb4461500ec12dd7ad1164736f6c63430008110033",
  "immutableReferences": {
    "1347": [
      {
        "length": 32,
        "start": 1484
      },
      {
        "length": 32,
        "start": 2855
      }
    ]
  },
  "source": "// SPDX-License-Identifier: MIT\r\npragma solidity ^0.8.17;\r\n\r\nimport {Data} from \"../libraries/Data.sol\";\r\nimport {IMetreon} from \"../interfaces/IMetreon.sol\";\r\nimport {MetreonReceiver} from \"../MetreonReceiver.sol\";\r\n\r\nimport {IERC20} from \"@openzeppelin/contracts/token/ERC20/IERC20.sol\";\r\n\r\ncontract Beamre is MetreonReceiver {\r\n    IMetreon private _metreon;\r\n\r\n    mapping(address => bytes32[]) public _actions;\r\n    mapping(uint256 => address) public _contracts;\r\n\r\n    constructor(address metreon_) MetreonReceiver(metreon_) {\r\n        _metreon = IMetreon(getMetreon());\r\n    }\r\n\r\n    function bridgeToken(\r\n        uint256 toChainId,\r\n        Data.Token[] memory tokens\r\n    ) external payable {\r\n        Data.OutgoingMessage memory message = Data.OutgoingMessage({\r\n            toChainId: toChainId,\r\n            receiver: _contracts[toChainId],\r\n            payload: abi.encode(_msgSender()),\r\n            tokens: tokens,\r\n            payMaster: Data.PayMaster.METREON_PAY\r\n        });\r\n\r\n        // uint256 fee = _metreon.estimateFee(toChainId);\r\n\r\n        for (uint256 index = 0; index < tokens.length; index++) {\r\n            Data.Token memory token = tokens[index];\r\n\r\n            IERC20 tokenContract = IERC20(token.tokenId);\r\n\r\n            tokenContract.transferFrom(\r\n                _msgSender(),\r\n                address(this),\r\n                token.amount\r\n            );\r\n\r\n            tokenContract.approve(address(_metreon), token.amount);\r\n        }\r\n\r\n        bytes32 messageId = _metreon.sendMessage(message);\r\n\r\n        _actions[_msgSender()].push(messageId);\r\n    }\r\n\r\n    function _metreonReceive(\r\n        Data.IncomingMessage memory message\r\n    ) internal override {\r\n        address receiver = abi.decode(message.payload, (address));\r\n\r\n        for (uint256 index = 0; index < message.tokens.length; index++) {\r\n            Data.Token memory token = message.tokens[index];\r\n\r\n            IERC20 tokenContract = IERC20(token.tokenId);\r\n            tokenContract.transfer(receiver, token.amount);\r\n        }\r\n    }\r\n}\r\n",
  "sourcePath": "C:\\Users\\DELL\\Documents\\metreon.hack.areon\\smart-contracts\\contracts\\beamre\\Beamre.sol",
  "compiler": {
    "name": "solc",
    "version": "0.8.17+commit.8df45f5f.Emscripten.clang"
  },
  "schemaVersion": "3.4.11",
  "updatedAt": "2024-01-20T09:26:07.044Z",
  "networkType": "ethereum",
  "devdoc": {
    "kind": "dev",
    "methods": {
      "owner()": {
        "details": "Returns the address of the current owner."
      },
      "renounceOwnership()": {
        "details": "Leaves the contract without owner. It will not be possible to call `onlyOwner` functions. Can only be called by the current owner. NOTE: Renouncing ownership will leave the contract without an owner, thereby disabling any functionality that is only available to the owner."
      },
      "transferOwnership(address)": {
        "details": "Transfers ownership of the contract to a new account (`newOwner`). Can only be called by the current owner."
      }
    },
    "version": 1
  },
  "userdoc": {
    "kind": "user",
    "methods": {},
    "version": 1
  }
}