{
  "contractName": "Beamre",
  "abi": [
    {
      "inputs": [
        {
          "internalType": "address",
          "name": "metreon_",
          "type": "address"
        }
      ],
      "stateMutability": "nonpayable",
      "type": "constructor"
    },
    {
      "inputs": [
        {
          "internalType": "address",
          "name": "router",
          "type": "address"
        }
      ],
      "name": "InvalidRouter",
      "type": "error"
    },
    {
      "inputs": [
        {
          "internalType": "address",
          "name": "owner",
          "type": "address"
        }
      ],
      "name": "OwnableInvalidOwner",
      "type": "error"
    },
    {
      "inputs": [
        {
          "internalType": "address",
          "name": "account",
          "type": "address"
        }
      ],
      "name": "OwnableUnauthorizedAccount",
      "type": "error"
    },
    {
      "anonymous": false,
      "inputs": [
        {
          "indexed": true,
          "internalType": "address",
          "name": "previousOwner",
          "type": "address"
        },
        {
          "indexed": true,
          "internalType": "address",
          "name": "newOwner",
          "type": "address"
        }
      ],
      "name": "OwnershipTransferred",
      "type": "event"
    },
    {
      "inputs": [
        {
          "internalType": "address",
          "name": "",
          "type": "address"
        },
        {
          "internalType": "uint256",
          "name": "",
          "type": "uint256"
        }
      ],
      "name": "_actions",
      "outputs": [
        {
          "internalType": "bytes32",
          "name": "",
          "type": "bytes32"
        }
      ],
      "stateMutability": "view",
      "type": "function",
      "constant": true
    },
    {
      "inputs": [
        {
          "internalType": "uint256",
          "name": "",
          "type": "uint256"
        }
      ],
      "name": "_contracts",
      "outputs": [
        {
          "internalType": "address",
          "name": "",
          "type": "address"
        }
      ],
      "stateMutability": "view",
      "type": "function",
      "constant": true
    },
    {
      "inputs": [],
      "name": "getMetreon",
      "outputs": [
        {
          "internalType": "address",
          "name": "",
          "type": "address"
        }
      ],
      "stateMutability": "view",
      "type": "function",
      "constant": true
    },
    {
      "inputs": [],
      "name": "metreonPayMaster",
      "outputs": [
        {
          "internalType": "address",
          "name": "",
          "type": "address"
        }
      ],
      "stateMutability": "view",
      "type": "function",
      "constant": true
    },
    {
      "inputs": [
        {
          "components": [
            {
              "internalType": "bytes32",
              "name": "messageId",
              "type": "bytes32"
            },
            {
              "internalType": "uint256",
              "name": "fromChainId",
              "type": "uint256"
            },
            {
              "internalType": "address",
              "name": "sender",
              "type": "address"
            },
            {
              "internalType": "bytes",
              "name": "payload",
              "type": "bytes"
            },
            {
              "components": [
                {
                  "internalType": "address",
                  "name": "tokenId",
                  "type": "address"
                },
                {
                  "internalType": "uint256",
                  "name": "amount",
                  "type": "uint256"
                }
              ],
              "internalType": "struct Data.Token[]",
              "name": "tokens",
              "type": "tuple[]"
            },
            {
              "internalType": "enum Data.PayMaster",
              "name": "payMaster",
              "type": "uint8"
            }
          ],
          "internalType": "struct Data.IncomingMessage",
          "name": "message",
          "type": "tuple"
        },
        {
          "internalType": "address",
          "name": "tokenPool",
          "type": "address"
        }
      ],
      "name": "metreonReceive",
      "outputs": [],
      "stateMutability": "nonpayable",
      "type": "function"
    },
    {
      "inputs": [],
      "name": "owner",
      "outputs": [
        {
          "internalType": "address",
          "name": "",
          "type": "address"
        }
      ],
      "stateMutability": "view",
      "type": "function",
      "constant": true
    },
    {
      "inputs": [],
      "name": "renounceOwnership",
      "outputs": [],
      "stateMutability": "nonpayable",
      "type": "function"
    },
    {
      "inputs": [
        {
          "internalType": "address",
          "name": "newOwner",
          "type": "address"
        }
      ],
      "name": "transferOwnership",
      "outputs": [],
      "stateMutability": "nonpayable",
      "type": "function"
    },
    {
      "inputs": [
        {
          "internalType": "uint256",
          "name": "toChainId",
          "type": "uint256"
        },
        {
          "components": [
            {
              "internalType": "address",
              "name": "tokenId",
              "type": "address"
            },
            {
              "internalType": "uint256",
              "name": "amount",
              "type": "uint256"
            }
          ],
          "internalType": "struct Data.Token[]",
          "name": "tokens",
          "type": "tuple[]"
        }
      ],
      "name": "bridgeToken",
      "outputs": [],
      "stateMutability": "payable",
      "type": "function",
      "payable": true
    }
  ],
  "bytecode": "0x60a03461012b57610dc680380390601f19601f83011683019183831067ffffffffffffffff8411176101305780849260209460405283398101031261012b5751600160a060020a038082169182810361012b5733156100fa5760005491600160a060020a0319923384821617600055604051913391167f8be0079c531659141344cd1fd0a4f28419497f9722a3daafe3b4186f6b6457e0600080a383156100cb57506080526001541617600155604051610c669081610160823960805181818161056401526109480152f35b807fd7f73334000000000000000000000000000000000000000000000000000000006024925260006004820152fd5b60246040517f1e4fbdf700000000000000000000000000000000000000000000000000000000815260006004820152fd5b600080fd5b7f4e487b7100000000000000000000000000000000000000000000000000000000600052604160045260246000fdfe6080604081815260048036101561001557600080fd5b6000927c01000000000000000000000000000000000000000000000000000000008435049081635c72a569146109ee5750806367acd8a0146109be578063715018a61461096c578063737fb66b146109285780638da5cb5b146108fe578063b2bfc835146108a2578063e6f234f614610510578063f2fde38b1461046e5763f31c1448146100a257600080fd5b8160031936011261046a5780359160249167ffffffffffffffff8335818111610466576100d29036908401610aac565b9385875260209460038652600160a060020a039283868a20541686519833898b0152888a52878a01928a84108185111761044f5760e08b019081118482101761044f5788528252606089019081526080890198808a5260c060a08201918583520190600182528b5b8551811015610285578a8a8e8b610151858b610c05565b5193808d86511695019384519051927f23b872dd0000000000000000000000000000000000000000000000000000000084523390840152308d84015260448301528160648185885af1801561027b57928f93928f938f908f9094610205989561025e575b506001541692519451968795869485937f095ea7b3000000000000000000000000000000000000000000000000000000008552840160209093929193600160a060020a0360408201951681520152565b03925af1801561025257906102209291610225575b50610bdd565b61013a565b610244908d803d1061024b575b61023c8183610a71565b810190610c18565b503861021a565b503d610232565b8e8c51903d90823e3d90fd5b61027490883d8a1161024b5761023c8183610a71565b50386101b5565b8e513d84823e3d90fd5b508b94508793858b928b948a8f818a998d8260015416988a8c519e8f7fff9ec5fa000000000000000000000000000000000000000000000000000000008152015251908d0152511660448b01525160a060648b01528051908160c48c015287865b838110610437575050508460e4828c010152601f80199101168901928661010460e486019251958c608460c08284030191015286518094520194019185905b888a848410610411575050505050505160028110156103fc57879283869593819360a483015203925af19384156103f25785946103be575b50600290338652528320805491680100000000000000008310156103a957509061038c91600182018155610a40565b600882939254910260020a91828503928391021691191617905580f35b846041879260e060020a634e487b7102835252fd5b9080945081813d83116103eb575b6103d68183610a71565b810103126103e7575192600261035d565b8480fd5b503d6103cc565b82513d87823e3d90fd5b898360218960e060020a634e487b7102835252fd5b8551805184168952820151828901528e9850909601959093019260019190910190610325565b8281018201518d820160e401528d97508991016102e6565b8560418960e060020a634e487b7102600052526000fd5b8680fd5b8280fd5b503461046a57602036600319011261046a57610488610a11565b90610491610b63565b600160a060020a038092169283156104e157505060005482600160a060020a0319821617600055167f8be0079c531659141344cd1fd0a4f28419497f9722a3daafe3b4186f6b6457e0600080a380f35b908460249251917f1e4fbdf7000000000000000000000000000000000000000000000000000000008352820152fd5b50903461046a5760031990808236011261089e5782359267ffffffffffffffff928385116108385760c085830191863603011261083857602490813594600160a060020a039283871680970361089a5733847f0000000000000000000000000000000000000000000000000000000000000000160361086e5785519160c083018381108282111761085957875283358352602097828a0135898501526105b860448b01610a2c565b8885015260648a0135828111610855578a0136602382011215610855578781013583811161084057908c95949392918a51916105fd8d601f19601f8501160184610a71565b8183523686838301011161083c57818892878f930183860137830101526060850190815260848c0194853584811161083c576106408e8c60a49336920101610aac565b9d608083019e8f52013590600282101561083c5760a00152518a81805181010312610838578a01519587871680970361083857855b8c51805182101561072f578c8c8b8b8b8f85610694896106e599610c05565b51948551169401519451968795869485937fa9059cbb000000000000000000000000000000000000000000000000000000008552840160209093929193600160a060020a0360408201951681520152565b03925af180156107255761070292918e91610707575b5050610bdd565b610675565b8161071d92903d1061024b5761023c8183610a71565b508c386106fb565b8c513d8a823e3d90fd5b5050918891888b95948d976107448183610ba7565b905061074e578980f35b61075791610ba7565b9091833b156108345791899391988851998a947f37a0190f0000000000000000000000000000000000000000000000000000000086528160448701308b8901528c8c8901525260648601939287915b8c848410610800575050505050508383809203925af180156107f6576107cf575b808080808980f35b84116107e25750505281808080806107c7565b6041859160e060020a634e487b7102835252fd5b84513d88823e3d90fd5b91949750929597508060019295846108178a610a2c565b168152858901358682015201960193018b9593928d9795926107a6565b8980fd5b8580fd5b8780fd5b848d60418b60e060020a634e487b7102835252fd5b8b80fd5b828b60418960e060020a634e487b7102835252fd5b85517fd7f733340000000000000000000000000000000000000000000000000000000081523381870152fd5b8880fd5b8380fd5b8284346108fb57816003193601126108fb576108bc610a11565b600160a060020a031681526002602052818120805460243592908310156108fb5760206008856108ec8686610a40565b90549151920260020a90048152f35b80fd5b505034610924578160031936011261092457600160a060020a0360209254169051908152f35b5080fd5b50503461092457816003193601126109245760209051600160a060020a037f0000000000000000000000000000000000000000000000000000000000000000168152f35b83346108fb57806003193601126108fb57610985610b63565b80600160a060020a038154811981168355167f8be0079c531659141344cd1fd0a4f28419497f9722a3daafe3b4186f6b6457e08280a380f35b503461046a57602036600319011261046a5781602093600160a060020a0392358152600385522054169051908152f35b849034610924578160031936011261092457600160a060020a0360209254168152f35b60043590600160a060020a0382168203610a2757565b600080fd5b3590600160a060020a0382168203610a2757565b8054821015610a585760005260206000200190600090565b60e060020a634e487b7102600052603260045260246000fd5b90601f8019910116810190811067ffffffffffffffff821117610a9357604052565b60e060020a634e487b7102600052604160045260246000fd5b81601f82011215610a275780359067ffffffffffffffff92838311610a9357604092835194602092610ae2848085020188610a71565b8287528386818901940286010194818611610a27578401925b858410610b0c575050505050505090565b8684830312610a27578651908782019082821085831117610b4b57889287928452610b3687610a2c565b81528287013583820152815201930192610afb565b6024600060e060020a634e487b710281526041600452fd5b600160a060020a03600054163303610b7757565b60246040517f118cdaa7000000000000000000000000000000000000000000000000000000008152336004820152fd5b903590601e1981360301821215610a27570180359067ffffffffffffffff8211610a2757602001916040820236038313610a2757565b6000198114610bec5760010190565b60e060020a634e487b7102600052601160045260246000fd5b8051821015610a58576020809202010190565b90816020910312610a2757518015158103610a27579056fea26469706673582212206a28c6b7d422ea43e6c5e503fe7a7cef06caee1eb42df7caa03d0d5e37d93b1464736f6c63430008140033",
  "immutableReferences": {
    "722": [
      {
        "length": 32,
        "start": 1380
      },
      {
        "length": 32,
        "start": 2376
      }
    ]
  },
  "source": "// SPDX-License-Identifier: MIT\r\npragma solidity ^0.8.17;\r\n\r\nimport {Data} from \"../libraries/Data.sol\";\r\nimport {IMetreon} from \"../interfaces/IMetreon.sol\";\r\nimport {MetreonReceiver} from \"../MetreonReceiver.sol\";\r\n\r\nimport {IERC20} from \"@openzeppelin/contracts/token/ERC20/IERC20.sol\";\r\n\r\ncontract Beamre is MetreonReceiver {\r\n    IMetreon private _metreon;\r\n\r\n    mapping(address => bytes32[]) public _actions;\r\n    mapping(uint256 => address) public _contracts;\r\n\r\n    constructor(address metreon_) MetreonReceiver(metreon_) {\r\n        _metreon = IMetreon(getMetreon());\r\n    }\r\n\r\n    function bridgeToken(\r\n        uint256 toChainId,\r\n        Data.Token[] memory tokens\r\n    ) external payable {\r\n        Data.OutgoingMessage memory message = Data.OutgoingMessage({\r\n            toChainId: toChainId,\r\n            receiver: _contracts[toChainId],\r\n            payload: abi.encode(_msgSender()),\r\n            tokens: tokens,\r\n            payMaster: Data.PayMaster.METREON_PAY\r\n        });\r\n\r\n        // uint256 fee = _metreon.estimateFee(toChainId);\r\n\r\n        for (uint256 index = 0; index < tokens.length; index++) {\r\n            Data.Token memory token = tokens[index];\r\n\r\n            IERC20 tokenContract = IERC20(token.tokenId);\r\n\r\n            tokenContract.transferFrom(\r\n                _msgSender(),\r\n                address(this),\r\n                token.amount\r\n            );\r\n\r\n            tokenContract.approve(address(_metreon), token.amount);\r\n        }\r\n\r\n        bytes32 messageId = _metreon.sendMessage(message);\r\n\r\n        _actions[_msgSender()].push(messageId);\r\n    }\r\n\r\n    function _metreonReceive(\r\n        Data.IncomingMessage memory message\r\n    ) internal override {\r\n        address receiver = abi.decode(message.payload, (address));\r\n\r\n        for (uint256 index = 0; index < message.tokens.length; index++) {\r\n            Data.Token memory token = message.tokens[index];\r\n\r\n            IERC20 tokenContract = IERC20(token.tokenId);\r\n            tokenContract.transfer(receiver, token.amount);\r\n        }\r\n    }\r\n}\r\n",
  "sourcePath": "C:\\Users\\DELL\\Documents\\metreon.hack.areon\\smart-contracts\\contracts\\beamre\\Beamre.sol",
  "compiler": {
    "name": "solc",
    "version": "0.8.20+commit.a1b79de6.Emscripten.clang"
  },
  "schemaVersion": "3.4.11",
  "updatedAt": "2024-01-18T06:39:21.901Z",
  "networkType": "ethereum",
  "devdoc": {
    "errors": {
      "OwnableInvalidOwner(address)": [
        {
          "details": "The owner is not a valid owner account. (eg. `address(0)`)"
        }
      ],
      "OwnableUnauthorizedAccount(address)": [
        {
          "details": "The caller account is not authorized to perform an operation."
        }
      ]
    },
    "kind": "dev",
    "methods": {
      "owner()": {
        "details": "Returns the address of the current owner."
      },
      "renounceOwnership()": {
        "details": "Leaves the contract without owner. It will not be possible to call `onlyOwner` functions. Can only be called by the current owner. NOTE: Renouncing ownership will leave the contract without an owner, thereby disabling any functionality that is only available to the owner."
      },
      "transferOwnership(address)": {
        "details": "Transfers ownership of the contract to a new account (`newOwner`). Can only be called by the current owner."
      }
    },
    "version": 1
  },
  "userdoc": {
    "kind": "user",
    "methods": {},
    "version": 1
  }
}