{
  "contractName": "MetreonConfig",
  "abi": [
    {
      "inputs": [],
      "stateMutability": "nonpayable",
      "type": "constructor"
    },
    {
      "inputs": [
        {
          "internalType": "uint256",
          "name": "amount",
          "type": "uint256"
        }
      ],
      "name": "InvalidAmount",
      "type": "error"
    },
    {
      "inputs": [
        {
          "internalType": "uint256",
          "name": "chainId",
          "type": "uint256"
        }
      ],
      "name": "InvalidChainId",
      "type": "error"
    },
    {
      "inputs": [
        {
          "internalType": "address",
          "name": "owner",
          "type": "address"
        }
      ],
      "name": "OwnableInvalidOwner",
      "type": "error"
    },
    {
      "inputs": [
        {
          "internalType": "address",
          "name": "account",
          "type": "address"
        }
      ],
      "name": "OwnableUnauthorizedAccount",
      "type": "error"
    },
    {
      "anonymous": false,
      "inputs": [
        {
          "indexed": true,
          "internalType": "address",
          "name": "previousOwner",
          "type": "address"
        },
        {
          "indexed": true,
          "internalType": "address",
          "name": "newOwner",
          "type": "address"
        }
      ],
      "name": "OwnershipTransferred",
      "type": "event"
    },
    {
      "anonymous": false,
      "inputs": [
        {
          "indexed": false,
          "internalType": "uint256",
          "name": "toChainId",
          "type": "uint256"
        },
        {
          "indexed": false,
          "internalType": "uint256",
          "name": "amount",
          "type": "uint256"
        }
      ],
      "name": "SetFee",
      "type": "event"
    },
    {
      "anonymous": false,
      "inputs": [
        {
          "indexed": false,
          "internalType": "uint256[]",
          "name": "chains",
          "type": "uint256[]"
        }
      ],
      "name": "SupportedChains",
      "type": "event"
    },
    {
      "anonymous": false,
      "inputs": [
        {
          "indexed": false,
          "internalType": "address[]",
          "name": "chains",
          "type": "address[]"
        }
      ],
      "name": "SupportedTokens",
      "type": "event"
    },
    {
      "inputs": [],
      "name": "owner",
      "outputs": [
        {
          "internalType": "address",
          "name": "",
          "type": "address"
        }
      ],
      "stateMutability": "view",
      "type": "function",
      "constant": true
    },
    {
      "inputs": [],
      "name": "renounceOwnership",
      "outputs": [],
      "stateMutability": "nonpayable",
      "type": "function"
    },
    {
      "inputs": [
        {
          "internalType": "address",
          "name": "newOwner",
          "type": "address"
        }
      ],
      "name": "transferOwnership",
      "outputs": [],
      "stateMutability": "nonpayable",
      "type": "function"
    },
    {
      "inputs": [
        {
          "internalType": "uint256",
          "name": "toChainId",
          "type": "uint256"
        }
      ],
      "name": "getFee",
      "outputs": [
        {
          "internalType": "uint256",
          "name": "",
          "type": "uint256"
        }
      ],
      "stateMutability": "view",
      "type": "function",
      "constant": true
    },
    {
      "inputs": [
        {
          "internalType": "uint256",
          "name": "toChainId",
          "type": "uint256"
        },
        {
          "internalType": "uint256",
          "name": "amount",
          "type": "uint256"
        }
      ],
      "name": "setFee",
      "outputs": [],
      "stateMutability": "nonpayable",
      "type": "function"
    },
    {
      "inputs": [],
      "name": "supportedChains",
      "outputs": [
        {
          "internalType": "uint256[]",
          "name": "",
          "type": "uint256[]"
        }
      ],
      "stateMutability": "view",
      "type": "function",
      "constant": true
    },
    {
      "inputs": [
        {
          "internalType": "uint256[]",
          "name": "chains",
          "type": "uint256[]"
        }
      ],
      "name": "updateSupportedChains",
      "outputs": [],
      "stateMutability": "nonpayable",
      "type": "function"
    },
    {
      "inputs": [],
      "name": "supportedTokens",
      "outputs": [
        {
          "internalType": "address[]",
          "name": "",
          "type": "address[]"
        }
      ],
      "stateMutability": "view",
      "type": "function",
      "constant": true
    },
    {
      "inputs": [
        {
          "internalType": "address[]",
          "name": "tokens",
          "type": "address[]"
        }
      ],
      "name": "updateSupportedTokens",
      "outputs": [],
      "stateMutability": "nonpayable",
      "type": "function"
    }
  ],
  "bytecode": "0x60808060405234610093573315610064576000805433600160a060020a0319821681178355604051929091600160a060020a0316907f8be0079c531659141344cd1fd0a4f28419497f9722a3daafe3b4186f6b6457e09080a361086b90816100998239f35b807f1e4fbdf7000000000000000000000000000000000000000000000000000000006024925260006004820152fd5b600080fdfe6040608081526004908136101561001557600080fd5b6000917c0100000000000000000000000000000000000000000000000000000000833504806352f7c988146106295780636af405f6146104af578063715018a61461045d578063816949b5146103d95780638da5cb5b146103af5780639fea737714610210578063b002249d1461017c578063f2fde38b146100ca5763fcee45f4146100a057600080fd5b346100c65760203660031901126100c65760209282913581526001845220549051908152f35b8280fd5b5090346100c65760203660031901126100c657813591600160a060020a0391828416809403610178576100fb6107da565b8315610149575050825473ffffffffffffffffffffffffffffffffffffffff19811683178455167f8be0079c531659141344cd1fd0a4f28419497f9722a3daafe3b4186f6b6457e08380a380f35b908460249251917f1e4fbdf7000000000000000000000000000000000000000000000000000000008352820152fd5b8480fd5b82843461020d578060031936011261020d578151918291600354808552602080950194600383527fc2575a0e9e593c00f959f8c92f12db2869c3395a3b0502d05e2516446f71f85b92905b8282106101ed576101e986866101df828b03836106f2565b5191829182610796565b0390f35b8354600160a060020a0316875295860195600193840193909101906101c7565b80fd5b5090346100c657602091826003193601126103ab5780359267ffffffffffffffff918285116103a757366023860112156103a757848101359061025282610743565b9561025f865197886106f2565b828752838701602485829502830101913683116103a3576024869101915b83831061039357505050506102906107da565b855193841161036757680100000000000000008411610367575060025483600255808410610331575b509060028652855b8381106102ff57867f56aef294adb176650719ad99c27cf178915205af226a58c6f0e4c9bacc1b74666102f98888519182918261075b565b0390a180f35b82517f405787fa12a823e0f2b7631cc41b3ba8828b3321ca811111fa75cd3aa3bb5ace820155918101916001016102c1565b61036190847f405787fa12a823e0f2b7631cc41b3ba8828b3321ca811111fa75cd3aa3bb5ace918201910161081e565b386102b9565b8660416024927f4e487b7100000000000000000000000000000000000000000000000000000000835252fd5b823581529181019186910161027d565b8980fd5b8580fd5b8380fd5b5050346103d557816003193601126103d557600160a060020a0360209254169051908152f35b5080fd5b82843461020d578060031936011261020d578151918291600254808552602080950194600283527f405787fa12a823e0f2b7631cc41b3ba8828b3321ca811111fa75cd3aa3bb5ace92905b828210610446576101e9868661043c828b03836106f2565b519182918261075b565b835487529586019560019384019390910190610424565b833461020d578060031936011261020d576104766107da565b80600160a060020a038154811981168355167f8be0079c531659141344cd1fd0a4f28419497f9722a3daafe3b4186f6b6457e08280a380f35b5090346100c657602091826003193601126103ab5780359267ffffffffffffffff918285116103a757366023860112156103a75784810135906104f182610743565b956104fe865197886106f2565b828752838701602485829502830101913683116103a357602401905b8282106106065750505061052c6107da565b8551938411610367576801000000000000000084116103675750600354836003558084106105d0575b509060038652855b83811061059557867f023c0bbef93212a062a8b51d82c40fb6d8396cedf38372bf67778810697c7b296102f988885191829182610796565b8251600160a060020a03167fc2575a0e9e593c00f959f8c92f12db2869c3395a3b0502d05e2516446f71f85b8201559181019160010161055d565b61060090847fc2575a0e9e593c00f959f8c92f12db2869c3395a3b0502d05e2516446f71f85b918201910161081e565b38610555565b8135600160a060020a038116810361062557815290850190850161051a565b8a80fd5b509190346103d557806003193601126103d55782356024359361064a6107da565b84156106c357811561069557508293817f032dc6a2d839eb179729a55633fdf1c41a1fc4739394154117005db2b354b9b594526001602052808386205582519182526020820152a180f35b9060249251917f331003b3000000000000000000000000000000000000000000000000000000008352820152fd5b602490858451917f3728b83d000000000000000000000000000000000000000000000000000000008352820152fd5b90601f8019910116810190811067ffffffffffffffff82111761071457604052565b7f4e487b7100000000000000000000000000000000000000000000000000000000600052604160045260246000fd5b67ffffffffffffffff81116107145760208091020190565b6020908160408183019282815285518094520193019160005b828110610782575050505090565b835185529381019392810192600101610774565b6020908160408183019282815285518094520193019160005b8281106107bd575050505090565b8351600160a060020a0316855293810193928101926001016107af565b600160a060020a036000541633036107ee57565b60246040517f118cdaa7000000000000000000000000000000000000000000000000000000008152336004820152fd5b818110610829575050565b6000815560010161081e56fea26469706673582212206e60a1a55304078e86575c85f75c3deb7a93befcda7fd812b51c7f1fca47eb4f64736f6c63430008140033",
  "immutableReferences": {},
  "source": "// SPDX-License-Identifier: MIT\r\npragma solidity ^0.8.17;\r\n\r\nimport {IMetreonConfig} from \"./interfaces/IMetreonConfig.sol\";\r\n\r\nimport {Ownable} from \"@openzeppelin/contracts/access/Ownable.sol\";\r\n\r\ncontract MetreonConfig is IMetreonConfig, Ownable {\r\n    mapping(uint256 => uint256) private _fees;\r\n    uint256[] private _supportedChains;\r\n    address[] private _supportedTokens;\r\n\r\n    constructor() Ownable(_msgSender()) {}\r\n\r\n    function getFee(\r\n        uint256 toChainId\r\n    ) external view override returns (uint256) {\r\n        return _fees[toChainId];\r\n    }\r\n\r\n    function setFee(\r\n        uint256 toChainId,\r\n        uint256 amount\r\n    ) external override onlyOwner {\r\n        if (amount == 0) revert InvalidAmount(amount);\r\n        if (toChainId == 0) revert InvalidChainId(toChainId);\r\n\r\n        _fees[toChainId] = amount;\r\n\r\n        emit SetFee(toChainId, amount);\r\n    }\r\n\r\n    function supportedChains() external view returns (uint256[] memory) {\r\n        return _supportedChains;\r\n    }\r\n\r\n    function updateSupportedChains(uint256[] memory chains) external onlyOwner {\r\n        _supportedChains = chains;\r\n\r\n        emit SupportedChains(chains);\r\n    }\r\n\r\n    function supportedTokens() external view returns (address[] memory) {\r\n        return _supportedTokens;\r\n    }\r\n\r\n    function updateSupportedTokens(address[] memory tokens) external onlyOwner {\r\n        _supportedTokens = tokens;\r\n\r\n        emit SupportedTokens(tokens);\r\n    }\r\n}\r\n",
  "sourcePath": "C:\\Users\\DELL\\Documents\\metreon.hack.areon\\smart-contracts\\contracts\\MetreonConfig.sol",
  "compiler": {
    "name": "solc",
    "version": "0.8.20+commit.a1b79de6.Emscripten.clang"
  },
  "schemaVersion": "3.4.11",
  "updatedAt": "2024-01-18T06:38:58.261Z",
  "networkType": "ethereum",
  "devdoc": {
    "errors": {
      "OwnableInvalidOwner(address)": [
        {
          "details": "The owner is not a valid owner account. (eg. `address(0)`)"
        }
      ],
      "OwnableUnauthorizedAccount(address)": [
        {
          "details": "The caller account is not authorized to perform an operation."
        }
      ]
    },
    "kind": "dev",
    "methods": {
      "owner()": {
        "details": "Returns the address of the current owner."
      },
      "renounceOwnership()": {
        "details": "Leaves the contract without owner. It will not be possible to call `onlyOwner` functions. Can only be called by the current owner. NOTE: Renouncing ownership will leave the contract without an owner, thereby disabling any functionality that is only available to the owner."
      },
      "transferOwnership(address)": {
        "details": "Transfers ownership of the contract to a new account (`newOwner`). Can only be called by the current owner."
      }
    },
    "version": 1
  },
  "userdoc": {
    "kind": "user",
    "methods": {},
    "version": 1
  }
}