{
  "contractName": "Metreon",
  "abi": [
    {
      "inputs": [
        {
          "internalType": "address",
          "name": "pay_",
          "type": "address"
        },
        {
          "internalType": "address",
          "name": "config_",
          "type": "address"
        },
        {
          "internalType": "address",
          "name": "tokenPool_",
          "type": "address"
        }
      ],
      "stateMutability": "nonpayable",
      "type": "constructor"
    },
    {
      "inputs": [],
      "name": "InsufficientGasFee",
      "type": "error"
    },
    {
      "inputs": [],
      "name": "InvalidMessage",
      "type": "error"
    },
    {
      "inputs": [
        {
          "internalType": "uint256",
          "name": "chainId",
          "type": "uint256"
        }
      ],
      "name": "UnsupportedChain",
      "type": "error"
    },
    {
      "anonymous": false,
      "inputs": [
        {
          "indexed": false,
          "internalType": "bytes32",
          "name": "messageId",
          "type": "bytes32"
        },
        {
          "indexed": false,
          "internalType": "uint256",
          "name": "fee",
          "type": "uint256"
        },
        {
          "indexed": false,
          "internalType": "address",
          "name": "feeToken",
          "type": "address"
        },
        {
          "indexed": false,
          "internalType": "uint256",
          "name": "sequenceNumber",
          "type": "uint256"
        },
        {
          "indexed": false,
          "internalType": "uint256",
          "name": "toChainId",
          "type": "uint256"
        },
        {
          "indexed": false,
          "internalType": "address",
          "name": "sender",
          "type": "address"
        },
        {
          "indexed": false,
          "internalType": "address",
          "name": "receiver",
          "type": "address"
        },
        {
          "components": [
            {
              "internalType": "address",
              "name": "tokenId",
              "type": "address"
            },
            {
              "internalType": "uint256",
              "name": "amount",
              "type": "uint256"
            }
          ],
          "indexed": false,
          "internalType": "struct Data.Token[]",
          "name": "tokens",
          "type": "tuple[]"
        },
        {
          "indexed": false,
          "internalType": "enum Data.PayMaster",
          "name": "payMaster",
          "type": "uint8"
        },
        {
          "indexed": false,
          "internalType": "bytes",
          "name": "payload",
          "type": "bytes"
        }
      ],
      "name": "Dispatch",
      "type": "event"
    },
    {
      "inputs": [
        {
          "internalType": "uint256",
          "name": "chainId",
          "type": "uint256"
        }
      ],
      "name": "isChainSupported",
      "outputs": [
        {
          "internalType": "bool",
          "name": "",
          "type": "bool"
        }
      ],
      "stateMutability": "view",
      "type": "function"
    },
    {
      "inputs": [
        {
          "internalType": "address",
          "name": "tokenId",
          "type": "address"
        }
      ],
      "name": "isTokenSupported",
      "outputs": [
        {
          "internalType": "bool",
          "name": "",
          "type": "bool"
        }
      ],
      "stateMutability": "view",
      "type": "function"
    },
    {
      "inputs": [
        {
          "internalType": "uint256",
          "name": "toChainId",
          "type": "uint256"
        }
      ],
      "name": "estimateFee",
      "outputs": [
        {
          "internalType": "uint256",
          "name": "",
          "type": "uint256"
        }
      ],
      "stateMutability": "view",
      "type": "function"
    },
    {
      "inputs": [
        {
          "components": [
            {
              "internalType": "uint256",
              "name": "toChainId",
              "type": "uint256"
            },
            {
              "internalType": "address",
              "name": "receiver",
              "type": "address"
            },
            {
              "internalType": "bytes",
              "name": "payload",
              "type": "bytes"
            },
            {
              "components": [
                {
                  "internalType": "address",
                  "name": "tokenId",
                  "type": "address"
                },
                {
                  "internalType": "uint256",
                  "name": "amount",
                  "type": "uint256"
                }
              ],
              "internalType": "struct Data.Token[]",
              "name": "tokens",
              "type": "tuple[]"
            },
            {
              "internalType": "enum Data.PayMaster",
              "name": "payMaster",
              "type": "uint8"
            }
          ],
          "internalType": "struct Data.OutgoingMessage",
          "name": "message",
          "type": "tuple"
        }
      ],
      "name": "sendMessage",
      "outputs": [
        {
          "internalType": "bytes32",
          "name": "",
          "type": "bytes32"
        }
      ],
      "stateMutability": "payable",
      "type": "function"
    }
  ],
  "bytecode": "0x6080346100a257610e6e80380390601f19601f83011683019183831067ffffffffffffffff8411176100a7578084926060946040528339810103126100a257610047816100d6565b906100606040610059602084016100d6565b92016100d6565b600160a060020a03809281600160a060020a031995168560015416176001551683600254161760025516906003541617600355604051610d8390816100eb8239f35b600080fd5b7f4e487b7100000000000000000000000000000000000000000000000000000000600052604160045260246000fd5b5190600160a060020a03821682036100a25756fe608080604052600436101561001357600080fd5b6000907c0100000000000000000000000000000000000000000000000000000000823504908163127e8e4d14610900575080635221c1f0146108e157806375151b63146108a65763ff9ec5fa1461006957600080fd5b60031960203682011261071e5767ffffffffffffffff6004351161071e5760a090600435360301126108a357805460405160a0810181811067ffffffffffffffff82111761088c576040526004356004013581526100cb6024600435016109a6565b602082015267ffffffffffffffff60446004350135116106dc573660043560448101350160230112156106dc5767ffffffffffffffff6004803560448101350101351161087557604051610134600480356044810135010135601f01601f1916602001826109bf565b60048035604481013501908101358083523691016024011161052b57600480356044810135019081013590602401602083013783602060046044813501358135010135830101526040820152606460043501359067ffffffffffffffff821161052b57366023836004350101121561052b576004828135010135906101b8826109fa565b916101c660405193846109bf565b80835260208301809436602460408502836004350101011161087157906024826004350101915b6024604085028260043501010183106108515750505050816060820152600260846004350135101561052f579290916084600435013560808501528351936040600160a060020a03602083015116910151906040519586947feeeeeeeeeeeeeeeeeeeeeeeeeeeeeeeeeeeeeeee00000000000000000000000060208701526c0100000000000000000000000033021760408601526060850152608084015260e060a084015280519081610100850152865b82811061083857505080866101206101409386010152601f801991011683016101208101946101008583030160c086015251809552019092855b81811061080a57505061030792506102f960e0830160846004350135610d27565b03601f1981018352826109bf565b6020815191012060246020600160a060020a0360025416604051928380927ffcee45f40000000000000000000000000000000000000000000000000000000082526004356004013560048301525afa90811561047d5783916107d8575b50600435608401356001036107a657346107225782600160a060020a0360015416803b1561071e5781906064604051809481937f120cad450000000000000000000000000000000000000000000000000000000083523360048401528760248401528860448401525af18015610713576106e0575b505b825b6103f1606460043501600435600401610cf1565b905081101561055d5761040e606460043501600435600401610cf1565b821015610546576104259036906040840201610cb1565b8051600160a060020a03169073eeeeeeeeeeeeeeeeeeeeeeeeeeeeeeeeeeeeeeee820361049257505083808080600160a060020a036003541681903415610488575b3491f11561047d5761047890610a12565b6103dd565b6040513d85823e3d90fd5b6108fc9150610467565b602090606482600160a060020a0360035416920151918860405195869485937f23b872dd000000000000000000000000000000000000000000000000000000008552336004860152602485015260448401525af1801561053b576104fb575b5061047890610a12565b6020813d602011610533575b81610514602093836109bf565b8101031261052f57518015150361052b57386104f1565b8380fd5b8480fd5b3d9150610507565b6040513d87823e3d90fd5b60248560e060020a634e487b710281526032600452fd5b5091805460246004350135600160a060020a03811681036106dc5761058c606460043501600435600401610cf1565b909560221960043536030160446004350135121561052f576004803560448101350190810135360360249091011361052f578190600160a060020a036040519461014086019289875260208701528760408701528660608701526004356004013560808701523360a08701521660c085015261014060e08501525261016082019590845b8181106106aa57505050907fd00eacc6efde56afa76b4a4559b37e6f3fe7141311a16134b34e233b312d5d0c8260208181986106596101006106a0980160846004350135610d27565b818103610120830152600480356044810135019081013580835290602401848301376004803560448101350101358181018401899052601f01601f191601030190a1610a12565b9055604051908152f35b909196604080600192600160a060020a036106c48c6109a6565b16815260208b81013590820152019801929101610610565b8280fd5b67ffffffffffffffff81949294116106fc5760405291386103d9565b60248260e060020a634e487b710281526041600452fd5b6040513d86823e3d90fd5b5080fd5b60846040517f08c379a000000000000000000000000000000000000000000000000000000000815260206004820152603060248201527f446f6e74207061737320696e20616e792076616c756520666f72205061794d6160448201527f737465722e4d455452454f4e5f504159000000000000000000000000000000006064820152fd5b803410156103db5760046040517fe6b65893000000000000000000000000000000000000000000000000000000008152fd5b90506020813d602011610802575b816107f3602093836109bf565b810103126106dc575138610364565b3d91506107e6565b84518051600160a060020a0316845260209081015181850152909401938593506040909201916001016102d8565b602082820181015161012089840101528795500161029e565b60408060206024946108633688610cb1565b8152019401939250506101ed565b8780fd5b60248360e060020a634e487b710281526041600452fd5b60248460e060020a634e487b710281526041600452fd5b80fd5b50346108a35760203660031901126108a35760043590600160a060020a03821682036108a35760206108d783610b85565b6040519015158152f35b50346108a35760203660031901126108a35760206108d7600435610a66565b82346108a3576020918260031936011261071e578281602481600160a060020a03600254167ffcee45f400000000000000000000000000000000000000000000000000000000825260043560048301525afa91821561099a57809261096a575b5050604051908152f35b9091508282813d8311610993575b61098281836109bf565b810103126108a35750518280610960565b503d610978565b604051903d90823e3d90fd5b3590600160a060020a03821682036109ba57565b600080fd5b90601f8019910116810190811067ffffffffffffffff8211176109e157604052565b60e060020a634e487b7102600052604160045260246000fd5b67ffffffffffffffff81116109e15760208091020190565b6000198114610a215760010190565b60e060020a634e487b7102600052601160045260246000fd5b8051821015610a4d576020809202010190565b60e060020a634e487b7102600052603260045260246000fd5b600160a060020a03600254169060405180927f816949b500000000000000000000000000000000000000000000000000000000825281600460009586935afa90811561047d578391610aed575b50825b8151811015610ae75782610aca8284610a3a565b5114610ade57610ad990610a12565b610ab6565b50505050600190565b50505090565b90503d8084833e610afe81836109bf565b810190602090818184031261052f5780519067ffffffffffffffff8211610b8157019180601f8401121561052f578251610b37816109fa565b93610b4560405195866109bf565b81855283808087019302820101928311610b7d578301905b828210610b6e575050505038610ab3565b81518152908301908301610b5d565b8680fd5b8580fd5b600160a060020a039081600254169160405180937fb002249d00000000000000000000000000000000000000000000000000000000825281600460009687935afa908115610713578491610c14575b50835b8151811015610c0d5782610beb8284610a3a565b511683851614610c0357610bfe90610a12565b610bd7565b5050505050600190565b5050505090565b90503d8085833e610c2581836109bf565b8101906020908181840312610b815780519067ffffffffffffffff8211610b7d57019180601f84011215610b81578251610c5e816109fa565b93610c6c60405195866109bf565b81855283808087019302820101928311610871578301905b828210610c95575050505038610bd4565b81518681168103610cad578152908301908301610c84565b8880fd5b91908260409103126109ba576040516040810181811067ffffffffffffffff8211176109e1576040526020808294610ce8816109a6565b84520135910152565b903590601e19813603018212156109ba570180359067ffffffffffffffff82116109ba576020019160408202360383136109ba57565b906002821015610d345752565b60e060020a634e487b7102600052602160045260246000fdfea264697066735822122014dfb7976dffd6ff023d59714f604ac6399f257bc7966eb09f4f095ed7cd7a2564736f6c63430008110033",
  "immutableReferences": {},
  "source": "// SPDX-License-Identifier: MIT\r\npragma solidity ^0.8.17;\r\n\r\nimport {Hash} from \"./libraries/Hash.sol\";\r\nimport {Data} from \"./libraries/Data.sol\";\r\nimport {IMetreon} from \"./interfaces/IMetreon.sol\";\r\nimport {IMetreonPay} from \"./interfaces/IMetreonPay.sol\";\r\nimport {IMetreonConfig} from \"./interfaces/IMetreonConfig.sol\";\r\n\r\nimport {IERC20} from \"@openzeppelin/contracts/token/ERC20/IERC20.sol\";\r\nimport {Context} from \"@openzeppelin/contracts/utils/Context.sol\";\r\n\r\ncontract Metreon is IMetreon, Context {\r\n    uint256 private _msgIndex;\r\n    IMetreonPay private _pay;\r\n    IMetreonConfig private _config;\r\n    address private _tokenPool;\r\n\r\n    constructor(address pay_, address config_, address tokenPool_) {\r\n        _pay = IMetreonPay(pay_);\r\n        _config = IMetreonConfig(config_);\r\n        _tokenPool = tokenPool_;\r\n    }\r\n\r\n    function isChainSupported(uint256 chainId) external view returns (bool) {\r\n        uint256[] memory chainIds = _config.supportedChains();\r\n\r\n        for (uint256 index = 0; index < chainIds.length; index++) {\r\n            if (chainIds[index] == chainId) return true;\r\n        }\r\n\r\n        return false;\r\n    }\r\n\r\n    function isTokenSupported(address tokenId) external view returns (bool) {\r\n        address[] memory tokenIds = _config.supportedTokens();\r\n\r\n        for (uint256 index = 0; index < tokenIds.length; index++) {\r\n            if (tokenIds[index] == tokenId) return true;\r\n        }\r\n\r\n        return false;\r\n    }\r\n\r\n    function estimateFee(uint256 toChainId) external view returns (uint256) {\r\n        return _config.getFee(toChainId);\r\n    }\r\n\r\n    function sendMessage(\r\n        Data.OutgoingMessage calldata message\r\n    ) external payable returns (bytes32) {\r\n        bytes32 combinedMsgIndex = (Hash.addressToBytes32(_msgSender()) << 96) |\r\n            bytes32(_msgIndex);\r\n\r\n        bytes32 messageId = Hash.getHash(message, combinedMsgIndex);\r\n\r\n        uint256 estimatedFee = _config.getFee(message.toChainId);\r\n\r\n        if (message.payMaster == Data.PayMaster.METREON_PAY) {\r\n            require(\r\n                msg.value == 0,\r\n                \"Dont pass in any value for PayMaster.METREON_PAY\"\r\n            );\r\n\r\n            _pay.payGas(_msgSender(), estimatedFee, messageId);\r\n        } else {\r\n            if (msg.value < estimatedFee) revert InsufficientGasFee();\r\n        }\r\n\r\n        for (uint256 index = 0; index < message.tokens.length; index++) {\r\n            Data.Token memory token = message.tokens[index];\r\n\r\n            if (token.tokenId == 0xEeeeeEeeeEeEeeEeEeEeeEEEeeeeEeeeeeeeEEeE) {\r\n                payable(_tokenPool).transfer(msg.value);\r\n            } else {\r\n                IERC20 tokenContract = IERC20(token.tokenId);\r\n                tokenContract.transferFrom(\r\n                    _msgSender(),\r\n                    _tokenPool,\r\n                    token.amount\r\n                );\r\n            }\r\n        }\r\n\r\n        emit Dispatch(\r\n            messageId,\r\n            estimatedFee,\r\n            address(0), // native coin\r\n            _msgIndex, // message sequence\r\n            message.toChainId,\r\n            _msgSender(),\r\n            message.receiver,\r\n            message.tokens,\r\n            message.payMaster,\r\n            message.payload\r\n        );\r\n\r\n        _msgIndex++;\r\n\r\n        return messageId;\r\n    }\r\n}\r\n",
  "sourcePath": "C:\\Users\\DELL\\Documents\\metreon.hack.areon\\smart-contracts\\contracts\\Metreon.sol",
  "compiler": {
    "name": "solc",
    "version": "0.8.17+commit.8df45f5f.Emscripten.clang"
  },
  "schemaVersion": "3.4.11",
  "updatedAt": "2024-01-25T22:09:45.873Z",
  "devdoc": {
    "kind": "dev",
    "methods": {},
    "version": 1
  },
  "userdoc": {
    "kind": "user",
    "methods": {},
    "version": 1
  }
}