{
  "contractName": "MetreonPay",
  "abi": [
    {
      "inputs": [
        {
          "internalType": "uint256",
          "name": "amount",
          "type": "uint256"
        }
      ],
      "name": "InsufficientAmount",
      "type": "error"
    },
    {
      "inputs": [
        {
          "internalType": "address",
          "name": "payer",
          "type": "address"
        }
      ],
      "name": "InvalidPayMaster",
      "type": "error"
    },
    {
      "anonymous": false,
      "inputs": [
        {
          "indexed": false,
          "internalType": "address",
          "name": "dapp",
          "type": "address"
        },
        {
          "indexed": false,
          "internalType": "uint256",
          "name": "amount",
          "type": "uint256"
        }
      ],
      "name": "Deposit",
      "type": "event"
    },
    {
      "anonymous": false,
      "inputs": [
        {
          "indexed": false,
          "internalType": "address",
          "name": "dapp",
          "type": "address"
        },
        {
          "indexed": false,
          "internalType": "uint256",
          "name": "amount",
          "type": "uint256"
        },
        {
          "indexed": false,
          "internalType": "bytes32",
          "name": "messageId",
          "type": "bytes32"
        }
      ],
      "name": "PayGas",
      "type": "event"
    },
    {
      "anonymous": false,
      "inputs": [
        {
          "indexed": false,
          "internalType": "address",
          "name": "dapp",
          "type": "address"
        },
        {
          "indexed": false,
          "internalType": "uint256",
          "name": "amount",
          "type": "uint256"
        }
      ],
      "name": "Withdraw",
      "type": "event"
    },
    {
      "inputs": [
        {
          "internalType": "address",
          "name": "",
          "type": "address"
        }
      ],
      "name": "_dapps",
      "outputs": [
        {
          "internalType": "uint256",
          "name": "",
          "type": "uint256"
        }
      ],
      "stateMutability": "view",
      "type": "function",
      "constant": true
    },
    {
      "inputs": [
        {
          "internalType": "address",
          "name": "dapp",
          "type": "address"
        }
      ],
      "name": "deposit",
      "outputs": [],
      "stateMutability": "payable",
      "type": "function",
      "payable": true
    },
    {
      "inputs": [
        {
          "internalType": "address",
          "name": "dapp",
          "type": "address"
        },
        {
          "internalType": "uint256",
          "name": "amount",
          "type": "uint256"
        }
      ],
      "name": "withdraw",
      "outputs": [],
      "stateMutability": "nonpayable",
      "type": "function"
    },
    {
      "inputs": [
        {
          "internalType": "address",
          "name": "dapp",
          "type": "address"
        },
        {
          "internalType": "uint256",
          "name": "amount",
          "type": "uint256"
        },
        {
          "internalType": "bytes32",
          "name": "messageId",
          "type": "bytes32"
        }
      ],
      "name": "payGas",
      "outputs": [],
      "stateMutability": "nonpayable",
      "type": "function"
    }
  ],
  "bytecode": "0x608080604052346100165761058e908161001c8239f35b600080fdfe6080604081815260048036101561001557600080fd5b6000927c0100000000000000000000000000000000000000000000000000000000843504908163120cad45146103d157508063cc26f1ae1461039b578063f340fa01146102565763f3fef3a31461006b57600080fd5b34610252578160031936011261025257610083610491565b60243591600160a060020a038083168551927f5c72a569000000000000000000000000000000000000000000000000000000009081855260209485818381875afa80156102485785918b9161022b575b501633036101fb5782895288855286888a2054106101cc57938291899582959487528683528987206101068a825461051c565b905589518094819382525afa9283156101c25784938493849389938593610193575b505083918315610189575b1690f11561017d579151600160a060020a03909216825260208201527f884edad9ce6fa2440d8a54cc123490eb96d2768479d49ff9c7366125a94243649080604081015b0390a180f35b505051903d90823e3d90fd5b6108fc9250610133565b6101b3929350803d106101bb575b6101ab81836104ac565b8101906104fd565b903880610128565b503d6101a1565b87513d86823e3d90fd5b602490878951917f77b8dde3000000000000000000000000000000000000000000000000000000008352820152fd5b6024908851907fab26abf00000000000000000000000000000000000000000000000000000000082523390820152fd5b6102429150873d89116101bb576101ab81836104ac565b386100d3565b89513d8c823e3d90fd5b8280fd5b50919060203660031901126103975761026d610491565b90600160a060020a038083169082517f5c72a5690000000000000000000000000000000000000000000000000000000081526020818881865afa90811561038d57869161036f575b5016330361034057835282602052808320805490348201809211610314575551600160a060020a0390911681523460208201527fe1fffcc4923d04b559f4d29a8bfc6cda04eb5b0d3c460751c2402c5c5cc9109c908060408101610177565b6024856011887f4e487b7100000000000000000000000000000000000000000000000000000000835252fd5b81517fab26abf00000000000000000000000000000000000000000000000000000000081523381870152602490fd5b610387915060203d81116101bb576101ab81836104ac565b386102b5565b84513d88823e3d90fd5b5080fd5b5050346103975760203660031901126103975780602092600160a060020a036103c2610491565b16815280845220549051908152f35b849391503461048d57606036600319011261048d576103ee610491565b90600160a060020a036024359216938486528560205282848720541061046157857ffea9da21606e4205832bcfc5d68aac8e4799bc3dedadc463e01cbe2510e52e6d60608787878286528560205281862061044a82825461051c565b90558151928352602083015260443590820152a180f35b916024927f77b8dde3000000000000000000000000000000000000000000000000000000008352820152fd5b8380fd5b60043590600160a060020a03821682036104a757565b600080fd5b90601f8019910116810190811067ffffffffffffffff8211176104ce57604052565b7f4e487b7100000000000000000000000000000000000000000000000000000000600052604160045260246000fd5b908160209103126104a75751600160a060020a03811681036104a75790565b9190820391821161052957565b7f4e487b7100000000000000000000000000000000000000000000000000000000600052601160045260246000fdfea26469706673582212202ca7d3d156d6466b0c03d6fc1c0881bbaef74d402c7210d2f6d96b0cd7f238fc64736f6c63430008110033",
  "immutableReferences": {},
  "source": "// SPDX-License-Identifier: MIT\r\npragma solidity ^0.8.17;\r\n\r\nimport {Data} from \"../libraries/Data.sol\";\r\nimport {IMetreonPay} from \"../interfaces/IMetreonPay.sol\";\r\nimport {IMessageReceiver} from \"../interfaces/IMessageReceiver.sol\";\r\n\r\nimport {Context} from \"@openzeppelin/contracts/utils/Context.sol\";\r\n\r\ncontract MetreonPay is IMetreonPay, Context {\r\n    mapping(address => uint256) public _dapps;\r\n\r\n    function deposit(address dapp) external payable override {\r\n        IMessageReceiver receiver = IMessageReceiver(dapp);\r\n\r\n        if (_msgSender() != receiver.metreonPayMaster())\r\n            revert InvalidPayMaster(_msgSender());\r\n\r\n        uint256 amount = msg.value;\r\n\r\n        _dapps[dapp] += amount;\r\n\r\n        emit Deposit(dapp, amount);\r\n    }\r\n\r\n    function withdraw(address dapp, uint256 amount) external override {\r\n        IMessageReceiver receiver = IMessageReceiver(dapp);\r\n\r\n        if (_msgSender() != receiver.metreonPayMaster())\r\n            revert InvalidPayMaster(_msgSender());\r\n\r\n        if (_dapps[dapp] < amount) revert InsufficientAmount(amount);\r\n\r\n        _dapps[dapp] -= amount;\r\n\r\n        // transfer to metreonPayMaster\r\n        payable(receiver.metreonPayMaster()).transfer(amount);\r\n\r\n        emit Withdraw(dapp, amount);\r\n    }\r\n\r\n    function payGas(\r\n        address dapp,\r\n        uint256 amount,\r\n        bytes32 messageId\r\n    ) external override {\r\n        if (_dapps[dapp] < amount) revert InsufficientAmount(amount);\r\n\r\n        _dapps[dapp] -= amount;\r\n\r\n        emit PayGas(dapp, amount, messageId);\r\n    }\r\n}\r\n",
  "sourcePath": "C:\\Users\\DELL\\Documents\\metreon.hack.areon\\smart-contracts\\contracts\\paymaster\\MetreonPay.sol",
  "compiler": {
    "name": "solc",
    "version": "0.8.17+commit.8df45f5f.Emscripten.clang"
  },
  "schemaVersion": "3.4.11",
  "updatedAt": "2024-01-20T09:25:45.972Z",
  "networkType": "ethereum",
  "devdoc": {
    "kind": "dev",
    "methods": {},
    "version": 1
  },
  "userdoc": {
    "kind": "user",
    "methods": {},
    "version": 1
  }
}