{
  "contractName": "Metreon",
  "abi": [
    {
      "inputs": [
        {
          "internalType": "address",
          "name": "pay_",
          "type": "address"
        },
        {
          "internalType": "address",
          "name": "config_",
          "type": "address"
        },
        {
          "internalType": "address",
          "name": "tokenPool_",
          "type": "address"
        }
      ],
      "stateMutability": "nonpayable",
      "type": "constructor"
    },
    {
      "inputs": [],
      "name": "InsufficientGasFee",
      "type": "error"
    },
    {
      "inputs": [],
      "name": "InvalidMessage",
      "type": "error"
    },
    {
      "inputs": [
        {
          "internalType": "uint256",
          "name": "chainId",
          "type": "uint256"
        }
      ],
      "name": "UnsupportedChain",
      "type": "error"
    },
    {
      "anonymous": false,
      "inputs": [
        {
          "indexed": false,
          "internalType": "bytes32",
          "name": "messageId",
          "type": "bytes32"
        },
        {
          "indexed": false,
          "internalType": "uint256",
          "name": "fee",
          "type": "uint256"
        },
        {
          "indexed": false,
          "internalType": "address",
          "name": "feeToken",
          "type": "address"
        },
        {
          "indexed": false,
          "internalType": "uint256",
          "name": "sequenceNumber",
          "type": "uint256"
        },
        {
          "indexed": false,
          "internalType": "uint256",
          "name": "toChainId",
          "type": "uint256"
        },
        {
          "indexed": false,
          "internalType": "address",
          "name": "sender",
          "type": "address"
        },
        {
          "indexed": false,
          "internalType": "address",
          "name": "receiver",
          "type": "address"
        },
        {
          "components": [
            {
              "internalType": "address",
              "name": "tokenId",
              "type": "address"
            },
            {
              "internalType": "uint256",
              "name": "amount",
              "type": "uint256"
            }
          ],
          "indexed": false,
          "internalType": "struct Data.Token[]",
          "name": "tokens",
          "type": "tuple[]"
        },
        {
          "indexed": false,
          "internalType": "enum Data.PayMaster",
          "name": "payMaster",
          "type": "uint8"
        },
        {
          "indexed": false,
          "internalType": "bytes",
          "name": "payload",
          "type": "bytes"
        }
      ],
      "name": "SendMessage",
      "type": "event"
    },
    {
      "inputs": [
        {
          "internalType": "uint256",
          "name": "chainId",
          "type": "uint256"
        }
      ],
      "name": "isChainSupported",
      "outputs": [
        {
          "internalType": "bool",
          "name": "",
          "type": "bool"
        }
      ],
      "stateMutability": "view",
      "type": "function"
    },
    {
      "inputs": [
        {
          "internalType": "address",
          "name": "tokenId",
          "type": "address"
        }
      ],
      "name": "isTokenSupported",
      "outputs": [
        {
          "internalType": "bool",
          "name": "",
          "type": "bool"
        }
      ],
      "stateMutability": "view",
      "type": "function"
    },
    {
      "inputs": [
        {
          "internalType": "uint256",
          "name": "toChainId",
          "type": "uint256"
        }
      ],
      "name": "estimateFee",
      "outputs": [
        {
          "internalType": "uint256",
          "name": "",
          "type": "uint256"
        }
      ],
      "stateMutability": "view",
      "type": "function"
    },
    {
      "inputs": [
        {
          "components": [
            {
              "internalType": "uint256",
              "name": "toChainId",
              "type": "uint256"
            },
            {
              "internalType": "address",
              "name": "receiver",
              "type": "address"
            },
            {
              "internalType": "bytes",
              "name": "payload",
              "type": "bytes"
            },
            {
              "components": [
                {
                  "internalType": "address",
                  "name": "tokenId",
                  "type": "address"
                },
                {
                  "internalType": "uint256",
                  "name": "amount",
                  "type": "uint256"
                }
              ],
              "internalType": "struct Data.Token[]",
              "name": "tokens",
              "type": "tuple[]"
            },
            {
              "internalType": "enum Data.PayMaster",
              "name": "payMaster",
              "type": "uint8"
            }
          ],
          "internalType": "struct Data.OutgoingMessage",
          "name": "message",
          "type": "tuple"
        }
      ],
      "name": "sendMessage",
      "outputs": [
        {
          "internalType": "bytes32",
          "name": "",
          "type": "bytes32"
        }
      ],
      "stateMutability": "payable",
      "type": "function"
    }
  ],
  "bytecode": "0x6080346100a257610e3880380390601f19601f83011683019183831067ffffffffffffffff8411176100a7578084926060946040528339810103126100a257610047816100d6565b906100606040610059602084016100d6565b92016100d6565b600160a060020a03809281600160a060020a031995168560015416176001551683600254161760025516906003541617600355604051610d4d90816100eb8239f35b600080fd5b7f4e487b7100000000000000000000000000000000000000000000000000000000600052604160045260246000fd5b5190600160a060020a03821682036100a25756fe608080604052600436101561001357600080fd5b6000907c0100000000000000000000000000000000000000000000000000000000823504908163127e8e4d146108ca575080635221c1f0146108ab57806375151b63146108705763ff9ec5fa1461006957600080fd5b6003196020368201126106e85767ffffffffffffffff600435116106e85760a0906004353603011261086d57805460405160a0810181811067ffffffffffffffff821117610856576040526004356004013581526100cb602460043501610970565b602082015267ffffffffffffffff60446004350135116106a6573660043560448101350160230112156106a65767ffffffffffffffff6004803560448101350101351161083f57604051610134600480356044810135010135601f01601f191660200182610989565b6004803560448101350190810135808352369101602401116104f557600480356044810135019081013590602401602083013783602060046044813501358135010135830101526040820152606460043501359067ffffffffffffffff82116104f55736602383600435010112156104f5576004828135010135906101b8826109c4565b916101c66040519384610989565b80835260208301809436602460408502836004350101011161083b57906024826004350101915b60246040850282600435010101831061081b575050505081606082015260026084600435013510156104f9579290916084600435013560808501528351936040600160a060020a03602083015116910151906040519586948860208701526c0100000000000000000000000033021760408601526060850152608084015260e060a084015280519081610100850152865b82811061080257505080866101206101409386010152601f801991011683016101208101946101008583030160c086015251809552019092855b8181106107d45750506102e792506102d960e0830160846004350135610cf1565b03601f198101835282610989565b6020815191012060246020600160a060020a0360025416604051928380927ffcee45f40000000000000000000000000000000000000000000000000000000082526004356004013560048301525afa9081156104475783916107a2575b506004356084013560010361077057346106ec5782600160a060020a0360015416803b156106e85781906064604051809481937f120cad450000000000000000000000000000000000000000000000000000000083523360048401528760248401528860448401525af180156106dd576106aa575b505b825b6103d1606460043501600435600401610cbb565b9050811015610527576103ee606460043501600435600401610cbb565b821015610510576104059036906040840201610c7b565b8051600160a060020a0316908161045c57505083808080600160a060020a036003541681903415610452575b3491f11561044757610442906109dc565b6103bd565b6040513d85823e3d90fd5b6108fc9150610431565b602090606482600160a060020a0360035416920151918860405195869485937f23b872dd000000000000000000000000000000000000000000000000000000008552336004860152602485015260448401525af18015610505576104c5575b50610442906109dc565b6020813d6020116104fd575b816104de60209383610989565b810103126104f95751801515036104f557386104bb565b8380fd5b8480fd5b3d91506104d1565b6040513d87823e3d90fd5b60248560e060020a634e487b710281526032600452fd5b5091805460246004350135600160a060020a03811681036106a657610556606460043501600435600401610cbb565b90956022196004353603016044600435013512156104f957600480356044810135019081013536036024909101136104f9578190600160a060020a036040519461014086019289875260208701528760408701528660608701526004356004013560808701523360a08701521660c085015261014060e08501525261016082019590845b81811061067457505050907f07b060eab5214f7a64728abfc2fc40f5ee6ffc06069e49cc8d2f8749c3adb92582602081819861062361010061066a980160846004350135610cf1565b818103610120830152600480356044810135019081013580835290602401848301376004803560448101350101358181018401899052601f01601f191601030190a16109dc565b9055604051908152f35b909196604080600192600160a060020a0361068e8c610970565b16815260208b810135908201520198019291016105da565b8280fd5b67ffffffffffffffff81949294116106c65760405291386103b9565b60248260e060020a634e487b710281526041600452fd5b6040513d86823e3d90fd5b5080fd5b60846040517f08c379a000000000000000000000000000000000000000000000000000000000815260206004820152603060248201527f446f6e74207061737320696e20616e792076616c756520666f72205061794d6160448201527f737465722e4d455452454f4e5f504159000000000000000000000000000000006064820152fd5b803410156103bb5760046040517fe6b65893000000000000000000000000000000000000000000000000000000008152fd5b90506020813d6020116107cc575b816107bd60209383610989565b810103126106a6575138610344565b3d91506107b0565b84518051600160a060020a0316845260209081015181850152909401938593506040909201916001016102b8565b602082820181015161012089840101528795500161027e565b604080602060249461082d3688610c7b565b8152019401939250506101ed565b8780fd5b60248360e060020a634e487b710281526041600452fd5b60248460e060020a634e487b710281526041600452fd5b80fd5b503461086d57602036600319011261086d5760043590600160a060020a038216820361086d5760206108a183610b4f565b6040519015158152f35b503461086d57602036600319011261086d5760206108a1600435610a30565b823461086d57602091826003193601126106e8578281602481600160a060020a03600254167ffcee45f400000000000000000000000000000000000000000000000000000000825260043560048301525afa918215610964578092610934575b5050604051908152f35b9091508282813d831161095d575b61094c8183610989565b8101031261086d575051828061092a565b503d610942565b604051903d90823e3d90fd5b3590600160a060020a038216820361098457565b600080fd5b90601f8019910116810190811067ffffffffffffffff8211176109ab57604052565b60e060020a634e487b7102600052604160045260246000fd5b67ffffffffffffffff81116109ab5760208091020190565b60001981146109eb5760010190565b60e060020a634e487b7102600052601160045260246000fd5b8051821015610a17576020809202010190565b60e060020a634e487b7102600052603260045260246000fd5b600160a060020a03600254169060405180927f816949b500000000000000000000000000000000000000000000000000000000825281600460009586935afa908115610447578391610ab7575b50825b8151811015610ab15782610a948284610a04565b5114610aa857610aa3906109dc565b610a80565b50505050600190565b50505090565b90503d8084833e610ac88183610989565b81019060209081818403126104f95780519067ffffffffffffffff8211610b4b57019180601f840112156104f9578251610b01816109c4565b93610b0f6040519586610989565b81855283808087019302820101928311610b47578301905b828210610b38575050505038610a7d565b81518152908301908301610b27565b8680fd5b8580fd5b600160a060020a039081600254169160405180937fb002249d00000000000000000000000000000000000000000000000000000000825281600460009687935afa9081156106dd578491610bde575b50835b8151811015610bd75782610bb58284610a04565b511683851614610bcd57610bc8906109dc565b610ba1565b5050505050600190565b5050505090565b90503d8085833e610bef8183610989565b8101906020908181840312610b4b5780519067ffffffffffffffff8211610b4757019180601f84011215610b4b578251610c28816109c4565b93610c366040519586610989565b8185528380808701930282010192831161083b578301905b828210610c5f575050505038610b9e565b81518681168103610c77578152908301908301610c4e565b8880fd5b9190826040910312610984576040516040810181811067ffffffffffffffff8211176109ab576040526020808294610cb281610970565b84520135910152565b903590601e1981360301821215610984570180359067ffffffffffffffff82116109845760200191604082023603831361098457565b906002821015610cfe5752565b60e060020a634e487b7102600052602160045260246000fdfea2646970667358221220e26c079dccae26ab56eb6802f7efd95d2982b0645765dcf73596f6e61f0b3a8964736f6c63430008140033",
  "immutableReferences": {},
  "source": "// SPDX-License-Identifier: MIT\r\npragma solidity ^0.8.17;\r\n\r\nimport {Hash} from \"./libraries/Hash.sol\";\r\nimport {Data} from \"./libraries/Data.sol\";\r\nimport {IMetreon} from \"./interfaces/IMetreon.sol\";\r\nimport {IMetreonPay} from \"./interfaces/IMetreonPay.sol\";\r\nimport {IMetreonConfig} from \"./interfaces/IMetreonConfig.sol\";\r\n\r\nimport {IERC20} from \"@openzeppelin/contracts/token/ERC20/IERC20.sol\";\r\nimport {Context} from \"@openzeppelin/contracts/utils/Context.sol\";\r\n\r\ncontract Metreon is IMetreon, Context {\r\n    uint256 private _msgIndex;\r\n    IMetreonPay private _pay;\r\n    IMetreonConfig private _config;\r\n    address private _tokenPool;\r\n\r\n    constructor(address pay_, address config_, address tokenPool_) {\r\n        _pay = IMetreonPay(pay_);\r\n        _config = IMetreonConfig(config_);\r\n        _tokenPool = tokenPool_;\r\n    }\r\n\r\n    function isChainSupported(uint256 chainId) external view returns (bool) {\r\n        uint256[] memory chainIds = _config.supportedChains();\r\n\r\n        for (uint256 index = 0; index < chainIds.length; index++) {\r\n            if (chainIds[index] == chainId) return true;\r\n        }\r\n\r\n        return false;\r\n    }\r\n\r\n    function isTokenSupported(address tokenId) external view returns (bool) {\r\n        address[] memory tokenIds = _config.supportedTokens();\r\n\r\n        for (uint256 index = 0; index < tokenIds.length; index++) {\r\n            if (tokenIds[index] == tokenId) return true;\r\n        }\r\n\r\n        return false;\r\n    }\r\n\r\n    function estimateFee(uint256 toChainId) external view returns (uint256) {\r\n        return _config.getFee(toChainId);\r\n    }\r\n\r\n    function sendMessage(\r\n        Data.OutgoingMessage calldata message\r\n    ) external payable returns (bytes32) {\r\n        bytes32 combinedMsgIndex = (Hash.addressToBytes32(_msgSender()) << 96) |\r\n            bytes32(_msgIndex);\r\n\r\n        bytes32 messageId = Hash.getHash(message, combinedMsgIndex);\r\n\r\n        uint256 estimatedFee = _config.getFee(message.toChainId);\r\n\r\n        if (message.payMaster == Data.PayMaster.METREON_PAY) {\r\n            require(\r\n                msg.value == 0,\r\n                \"Dont pass in any value for PayMaster.METREON_PAY\"\r\n            );\r\n\r\n            _pay.payGas(_msgSender(), estimatedFee, messageId);\r\n        } else {\r\n            if (msg.value < estimatedFee) revert InsufficientGasFee();\r\n        }\r\n\r\n        for (uint256 index = 0; index < message.tokens.length; index++) {\r\n            Data.Token memory token = message.tokens[index];\r\n\r\n            if (token.tokenId == address(0)) {\r\n                payable(_tokenPool).transfer(msg.value);\r\n            } else {\r\n                IERC20 tokenContract = IERC20(token.tokenId);\r\n                tokenContract.transferFrom(\r\n                    _msgSender(),\r\n                    _tokenPool,\r\n                    token.amount\r\n                );\r\n            }\r\n        }\r\n\r\n        emit SendMessage(\r\n            messageId,\r\n            estimatedFee,\r\n            address(0),\r\n            _msgIndex,\r\n            message.toChainId,\r\n            _msgSender(),\r\n            message.receiver,\r\n            message.tokens,\r\n            message.payMaster,\r\n            message.payload\r\n        );\r\n\r\n        _msgIndex++;\r\n\r\n        return messageId;\r\n    }\r\n}\r\n",
  "sourcePath": "C:\\Users\\DELL\\Documents\\metreon.hack.areon\\smart-contracts\\contracts\\Metreon.sol",
  "compiler": {
    "name": "solc",
    "version": "0.8.20+commit.a1b79de6.Emscripten.clang"
  },
  "schemaVersion": "3.4.11",
  "updatedAt": "2024-01-13T09:27:03.455Z",
  "devdoc": {
    "kind": "dev",
    "methods": {},
    "version": 1
  },
  "userdoc": {
    "kind": "user",
    "methods": {},
    "version": 1
  }
}