{
  "contractName": "Metreon",
  "abi": [
    {
      "inputs": [
        {
          "internalType": "address",
          "name": "pay_",
          "type": "address"
        },
        {
          "internalType": "address",
          "name": "config_",
          "type": "address"
        }
      ],
      "stateMutability": "nonpayable",
      "type": "constructor"
    },
    {
      "inputs": [
        {
          "internalType": "bytes32",
          "name": "messageId",
          "type": "bytes32"
        }
      ],
      "name": "AlreadyExecuted",
      "type": "error"
    },
    {
      "inputs": [],
      "name": "InsufficientGasFee",
      "type": "error"
    },
    {
      "inputs": [],
      "name": "InvalidMessage",
      "type": "error"
    },
    {
      "inputs": [
        {
          "internalType": "uint256",
          "name": "chainId",
          "type": "uint256"
        }
      ],
      "name": "UnsupportedChain",
      "type": "error"
    },
    {
      "anonymous": false,
      "inputs": [
        {
          "indexed": false,
          "internalType": "bytes32",
          "name": "messageId",
          "type": "bytes32"
        },
        {
          "indexed": false,
          "internalType": "uint256",
          "name": "fee",
          "type": "uint256"
        },
        {
          "indexed": false,
          "internalType": "address",
          "name": "feeToken",
          "type": "address"
        },
        {
          "indexed": false,
          "internalType": "uint256",
          "name": "sequenceNumber",
          "type": "uint256"
        },
        {
          "indexed": false,
          "internalType": "uint256",
          "name": "toChainId",
          "type": "uint256"
        },
        {
          "indexed": false,
          "internalType": "address",
          "name": "sender",
          "type": "address"
        },
        {
          "indexed": false,
          "internalType": "address",
          "name": "receiver",
          "type": "address"
        },
        {
          "components": [
            {
              "internalType": "address",
              "name": "tokenId",
              "type": "address"
            },
            {
              "internalType": "uint256",
              "name": "amount",
              "type": "uint256"
            }
          ],
          "indexed": false,
          "internalType": "struct Data.Token[]",
          "name": "tokens",
          "type": "tuple[]"
        },
        {
          "indexed": false,
          "internalType": "enum Data.PayMaster",
          "name": "payMaster",
          "type": "uint8"
        },
        {
          "indexed": false,
          "internalType": "bytes",
          "name": "payload",
          "type": "bytes"
        }
      ],
      "name": "Dispatch",
      "type": "event"
    },
    {
      "anonymous": false,
      "inputs": [
        {
          "indexed": true,
          "internalType": "address",
          "name": "previousOwner",
          "type": "address"
        },
        {
          "indexed": true,
          "internalType": "address",
          "name": "newOwner",
          "type": "address"
        }
      ],
      "name": "OwnershipTransferred",
      "type": "event"
    },
    {
      "anonymous": false,
      "inputs": [
        {
          "indexed": false,
          "internalType": "bytes32",
          "name": "messageId",
          "type": "bytes32"
        }
      ],
      "name": "PostMessage",
      "type": "event"
    },
    {
      "inputs": [],
      "name": "owner",
      "outputs": [
        {
          "internalType": "address",
          "name": "",
          "type": "address"
        }
      ],
      "stateMutability": "view",
      "type": "function",
      "constant": true
    },
    {
      "inputs": [],
      "name": "renounceOwnership",
      "outputs": [],
      "stateMutability": "nonpayable",
      "type": "function"
    },
    {
      "inputs": [
        {
          "internalType": "address",
          "name": "newOwner",
          "type": "address"
        }
      ],
      "name": "transferOwnership",
      "outputs": [],
      "stateMutability": "nonpayable",
      "type": "function"
    },
    {
      "inputs": [
        {
          "internalType": "uint256",
          "name": "chainId",
          "type": "uint256"
        }
      ],
      "name": "isChainSupported",
      "outputs": [
        {
          "internalType": "bool",
          "name": "",
          "type": "bool"
        }
      ],
      "stateMutability": "view",
      "type": "function",
      "constant": true
    },
    {
      "inputs": [
        {
          "internalType": "address",
          "name": "tokenId",
          "type": "address"
        }
      ],
      "name": "isTokenSupported",
      "outputs": [
        {
          "internalType": "bool",
          "name": "",
          "type": "bool"
        }
      ],
      "stateMutability": "view",
      "type": "function",
      "constant": true
    },
    {
      "inputs": [
        {
          "internalType": "uint256",
          "name": "toChainId",
          "type": "uint256"
        }
      ],
      "name": "estimateFee",
      "outputs": [
        {
          "internalType": "uint256",
          "name": "",
          "type": "uint256"
        }
      ],
      "stateMutability": "view",
      "type": "function",
      "constant": true
    },
    {
      "inputs": [
        {
          "components": [
            {
              "internalType": "uint256",
              "name": "toChainId",
              "type": "uint256"
            },
            {
              "internalType": "address",
              "name": "receiver",
              "type": "address"
            },
            {
              "internalType": "bytes",
              "name": "payload",
              "type": "bytes"
            },
            {
              "components": [
                {
                  "internalType": "address",
                  "name": "tokenId",
                  "type": "address"
                },
                {
                  "internalType": "uint256",
                  "name": "amount",
                  "type": "uint256"
                }
              ],
              "internalType": "struct Data.Token[]",
              "name": "tokens",
              "type": "tuple[]"
            },
            {
              "internalType": "enum Data.PayMaster",
              "name": "payMaster",
              "type": "uint8"
            }
          ],
          "internalType": "struct Data.OutgoingMessage",
          "name": "message",
          "type": "tuple"
        },
        {
          "internalType": "address",
          "name": "tokenPool",
          "type": "address"
        }
      ],
      "name": "sendMessage",
      "outputs": [
        {
          "internalType": "bytes32",
          "name": "",
          "type": "bytes32"
        }
      ],
      "stateMutability": "payable",
      "type": "function",
      "payable": true
    },
    {
      "inputs": [
        {
          "internalType": "address",
          "name": "receiver",
          "type": "address"
        },
        {
          "components": [
            {
              "internalType": "bytes32",
              "name": "messageId",
              "type": "bytes32"
            },
            {
              "internalType": "uint256",
              "name": "fromChainId",
              "type": "uint256"
            },
            {
              "internalType": "address",
              "name": "sender",
              "type": "address"
            },
            {
              "internalType": "bytes",
              "name": "payload",
              "type": "bytes"
            },
            {
              "components": [
                {
                  "internalType": "address",
                  "name": "tokenId",
                  "type": "address"
                },
                {
                  "internalType": "uint256",
                  "name": "amount",
                  "type": "uint256"
                }
              ],
              "internalType": "struct Data.Token[]",
              "name": "tokens",
              "type": "tuple[]"
            },
            {
              "internalType": "enum Data.PayMaster",
              "name": "payMaster",
              "type": "uint8"
            }
          ],
          "internalType": "struct Data.IncomingMessage",
          "name": "message",
          "type": "tuple"
        },
        {
          "internalType": "address",
          "name": "tokenPool",
          "type": "address"
        }
      ],
      "name": "postMessage",
      "outputs": [],
      "stateMutability": "nonpayable",
      "type": "function"
    }
  ],
  "bytecode": "0x6080346100c3576113b080380390601f19601f83011683019183831067ffffffffffffffff8411176100c85780849260409485528339810103126100c357610052602061004b836100f7565b92016100f7565b6000805433600160a060020a031980831682178455604051959094600160a060020a03949093859391908416907f8be0079c531659141344cd1fd0a4f28419497f9722a3daafe3b4186f6b6457e09080a316836002541617600255169060035416176003556112a4908161010c8239f35b600080fd5b7f4e487b7100000000000000000000000000000000000000000000000000000000600052604160045260246000fd5b5190600160a060020a03821682036100c35756fe6080604052600436101561001257600080fd5b60007c010000000000000000000000000000000000000000000000000000000081350480630c84010114610522578063127e8e4d1461047c5780635221c1f01461045d578063715018a6146103f657806375151b63146103c85780638da5cb5b146103a2578063f2fde38b146102ae5763fc1d606d1461009157600080fd5b346102ab576003196060368201126101d4576100ab610ceb565b906024359167ffffffffffffffff83116102625760c0836004019284360301126102625760443590600160a060020a03918281168091036102a6576100ee610d15565b833594858752600460205260ff60408820541661027557906101176084889695949301856110d4565b90506101e7575b5016803b156101e35761016c83929183926040519485809481937f47647f47000000000000000000000000000000000000000000000000000000008352602060048401526024830190611176565b03925af180156101d8576101c0575b50507f98302d606350c6eac5a0aa13af4cd08f0efcd727799fac363b660272da97b9ae6020604051838152a18152600460205260408120805460ff1916600117905580f35b6101c990610d87565b6101d457813861017b565b5080fd5b6040513d84823e3d90fd5b8280fd5b803b15610271578460405180927f25ed576d000000000000000000000000000000000000000000000000000000008252858516600483015260406024830152818381610236604482018b611176565b03925af190811561026657859161024e575b5061011e565b61025790610d87565b610262578338610248565b8380fd5b6040513d87823e3d90fd5b8480fd5b602486604051907fd1d36dcd0000000000000000000000000000000000000000000000000000000082526004820152fd5b600080fd5b80fd5b50346102ab5760203660031901126102ab576102c8610ceb565b6102d0610d15565b600160a060020a0380911690811561031e5760005482600160a060020a0319821617600055167f8be0079c531659141344cd1fd0a4f28419497f9722a3daafe3b4186f6b6457e0600080a380f35b60846040517f08c379a000000000000000000000000000000000000000000000000000000000815260206004820152602660248201527f4f776e61626c653a206e6577206f776e657220697320746865207a65726f206160448201527f64647265737300000000000000000000000000000000000000000000000000006064820152fd5b50346102ab57806003193601126102ab57600160a060020a036020915416604051908152f35b50346102ab5760203660031901126102ab5760206103ec6103e7610ceb565b610f68565b6040519015158152f35b50346102ab57806003193601126102ab5761040f610d15565b6000805473ffffffffffffffffffffffffffffffffffffffff1981168255600160a060020a03167f8be0079c531659141344cd1fd0a4f28419497f9722a3daafe3b4186f6b6457e08280a380f35b50346102ab5760203660031901126102ab5760206103ec600435610e42565b50346102ab57602090816003193601126102ab57602482600160a060020a0360035416604051928380927ffcee45f400000000000000000000000000000000000000000000000000000000825260043560048301525afa91821561051657916104e9575b50604051908152f35b90508181813d831161050f575b6105008183610db4565b810103126102a65751386104e0565b503d6104f6565b604051903d90823e3d90fd5b506003196040368201126101d45767ffffffffffffffff600435116101d45760a090600435360301126102ab57602435600160a060020a03811681036101d45760015461012060405260043560040135608052610583602460043501610d01565b60a05267ffffffffffffffff60043560440135116101e3573660043560448101350160230112156101e35767ffffffffffffffff60048035604481013501013511610cd4576040516105ea600480356044810135010135601f01601f191660200182610db4565b60048035604481013501908101358083523691016024011161026257600480356044810135019081013590602401602083013783602060046044813501358135010135830101526040608001526064600435013567ffffffffffffffff811161026257366023826004350101121561026257600481813501013561066d81610dd6565b9061067b6040519283610db4565b808252602082018093366024604085028360043501010111610cd057906024826004350101915b602460408502826004350101018310610cb05750505060e082905250600260043560840135101561027157909160846004350135608080015260805192600160a060020a0360206080015116604060800151906040519586947feeeeeeeeeeeeeeeeeeeeeeeeeeeeeeeeeeeeeeee00000000000000000000000060208701526c0100000000000000000000000033021760408601526060850152608084015260e060a084015280519081610100850152875b828110610c97575050828101610120908101889052601f909101601f191683018381036101000160c0850152935190840181905290926101400190865b818110610c695750506107c092506107b260e083016084600435013561112f565b03601f198101835282610db4565b602081519101209060246020600160a060020a0360035416604051928380927ffcee45f40000000000000000000000000000000000000000000000000000000082526004356004013560048301525afa908115610935578491610c37575b5060043560840135600103610c055734610b815783600160a060020a0360025416803b156101d45781906064604051809481937f120cad450000000000000000000000000000000000000000000000000000000083523360048401528760248401528960448401525af1801561026657610b6e575b505b835b6108ab6064600435016004356004016110d4565b9050811015610a0b576108c86064600435016004356004016110d4565b8210156109f4576108e0869136906040850201611094565b8051600160a060020a031673eeeeeeeeeeeeeeeeeeeeeeeeeeeeeeeeeeeeeeee8103610949575050803415610940575b818080923490600160a060020a03891690f1156109355761093090610dee565b610897565b6040513d86823e3d90fd5b506108fc610910565b606460208093015160405194859384927f23b872dd000000000000000000000000000000000000000000000000000000008452336004850152600160a060020a038b16602485015260448401525af180156109e9576109ad575b5061093090610dee565b6020813d6020116109e1575b816109c660209383610db4565b810103126109dd57518015150361027157386109a3565b8580fd5b3d91506109b9565b6040513d88823e3d90fd5b60248660e060020a634e487b710281526032600452fd5b5060015483906004356024013586600160a060020a03821682036102ab57610a3d6064600435016004356004016110d4565b9190956022196004353603016044600435013512156101d457600480356044810135019081013536036024909101136101d45791809192600160a060020a0360405195610140870192898852602088015273eeeeeeeeeeeeeeeeeeeeeeeeeeeeeeeeeeeeeeee60408801528760608801526004356004013560808801523360a08801521660c086015261014060e086015252610160830195915b818110610b5357602086610b48877fd00eacc6efde56afa76b4a4559b37e6f3fe7141311a16134b34e233b312d5d0c8880610b408e610b2061010084016084600435013561112f565b828103610120840152600480356044810135019081013590602401611155565b0390a1610dee565b600155604051908152f35b9091956040610b646001928961110a565b9701929101610ad7565b610b7a90949194610d87565b9238610893565b60846040517f08c379a000000000000000000000000000000000000000000000000000000000815260206004820152603060248201527f446f6e74207061737320696e20616e792076616c756520666f72205061794d6160448201527f737465722e4d455452454f4e5f504159000000000000000000000000000000006064820152fd5b803410156108955760046040517fe6b65893000000000000000000000000000000000000000000000000000000008152fd5b90506020813d602011610c61575b81610c5260209383610db4565b8101031261026257513861081e565b3d9150610c45565b84518051600160a060020a031684526020908101518185015290940193859350604090920191600101610791565b6020828201810151610120898401015287955001610754565b6040806020602494610cc23688611094565b8152019401939250506106a2565b8780fd5b60248360e060020a634e487b710281526041600452fd5b60043590600160a060020a03821682036102a657565b3590600160a060020a03821682036102a657565b600160a060020a03600054163303610d2957565b60646040517f08c379a000000000000000000000000000000000000000000000000000000000815260206004820152602060248201527f4f776e61626c653a2063616c6c6572206973206e6f7420746865206f776e65726044820152fd5b67ffffffffffffffff8111610d9b57604052565b60e060020a634e487b7102600052604160045260246000fd5b90601f8019910116810190811067ffffffffffffffff821117610d9b57604052565b67ffffffffffffffff8111610d9b5760208091020190565b6000198114610dfd5760010190565b60e060020a634e487b7102600052601160045260246000fd5b8051821015610e29576020809202010190565b60e060020a634e487b7102600052603260045260246000fd5b600160a060020a03600354169060405180927f816949b500000000000000000000000000000000000000000000000000000000825281600460009586935afa908115610f5d578391610ec9575b50825b8151811015610ec35782610ea68284610e16565b5114610eba57610eb590610dee565b610e92565b50505050600190565b50505090565b90503d8084833e610eda8183610db4565b81019060209081818403126102715780519067ffffffffffffffff82116109dd57019180601f84011215610271578251610f1381610dd6565b93610f216040519586610db4565b81855283808087019302820101928311610f59578301905b828210610f4a575050505038610e8f565b81518152908301908301610f39565b8680fd5b6040513d85823e3d90fd5b600160a060020a039081600354169160405180937fb002249d00000000000000000000000000000000000000000000000000000000825281600460009687935afa908115610935578491610ff7575b50835b8151811015610ff05782610fce8284610e16565b511683851614610fe657610fe190610dee565b610fba565b5050505050600190565b5050505090565b90503d8085833e6110088183610db4565b81019060209081818403126109dd5780519067ffffffffffffffff8211610f5957019180601f840112156109dd57825161104181610dd6565b9361104f6040519586610db4565b81855283808087019302820101928311610cd0578301905b828210611078575050505038610fb7565b81518681168103611090578152908301908301611067565b8880fd5b91908260409103126102a6576040516040810181811067ffffffffffffffff821117610d9b5760405260208082946110cb81610d01565b84520135910152565b903590601e19813603018212156102a6570180359067ffffffffffffffff82116102a6576020019160408202360383136102a657565b906020604092600160a060020a0361112182610d01565b168352013560208201520190565b90600282101561113c5752565b60e060020a634e487b7102600052602160045260246000fd5b908060209392818452848401376000828201840152601f01601f1916010190565b908135815260208201356020820152604091600160a060020a0361119b848301610d01565b168284015236819003601e19016060820135818112156102a65767ffffffffffffffff949083018035906020018682116102a65781360381136102a6576111ed9160c0606088015260c0870191611155565b916080840135908112156102a6578301916020833593019583116102a657818302360386136102a657848103608086015282815260200194919060005b828110611252575050505060a0013560028110156102a65760a061124f92019061112f565b90565b90919295826112636001928961110a565b97019392910161122a56fea2646970667358221220d0a3bb453b890a4775d015839f7551859ca1f38906fdd031ddc04eaae64817e664736f6c63430008110033",
  "immutableReferences": {},
  "source": "// SPDX-License-Identifier: MIT\r\npragma solidity ^0.8.17;\r\n\r\nimport {Hash} from \"./libraries/Hash.sol\";\r\nimport {Data} from \"./libraries/Data.sol\";\r\nimport {IPool} from \"./interfaces/Ipool.sol\";\r\nimport {IMetreon} from \"./interfaces/IMetreon.sol\";\r\nimport {IMessageReceiver} from \"./interfaces/IMessageReceiver.sol\";\r\nimport {IMetreonPay} from \"./interfaces/IMetreonPay.sol\";\r\nimport {IMetreonConfig} from \"./interfaces/IMetreonConfig.sol\";\r\n\r\nimport {IERC20} from \"@openzeppelin/contracts/token/ERC20/IERC20.sol\";\r\nimport {Ownable} from \"@openzeppelin/contracts/access/Ownable.sol\";\r\n\r\ncontract Metreon is IMetreon, Ownable {\r\n    uint256 private _sequence;\r\n    IMetreonPay private _pay;\r\n    IMetreonConfig private _config;\r\n    mapping(bytes32 => bool) private _executed;\r\n\r\n    constructor(address pay_, address config_) Ownable() {\r\n        _pay = IMetreonPay(pay_);\r\n        _config = IMetreonConfig(config_);\r\n    }\r\n\r\n    function isChainSupported(uint256 chainId) external view returns (bool) {\r\n        uint256[] memory chainIds = _config.supportedChains();\r\n\r\n        for (uint256 index = 0; index < chainIds.length; index++) {\r\n            if (chainIds[index] == chainId) return true;\r\n        }\r\n\r\n        return false;\r\n    }\r\n\r\n    function isTokenSupported(address tokenId) external view returns (bool) {\r\n        address[] memory tokenIds = _config.supportedTokens();\r\n\r\n        for (uint256 index = 0; index < tokenIds.length; index++) {\r\n            if (tokenIds[index] == tokenId) return true;\r\n        }\r\n\r\n        return false;\r\n    }\r\n\r\n    function estimateFee(uint256 toChainId) external view returns (uint256) {\r\n        return _config.getFee(toChainId);\r\n    }\r\n\r\n    function sendMessage(\r\n        Data.OutgoingMessage calldata message,\r\n        address tokenPool\r\n    ) external payable returns (bytes32) {\r\n        bytes32 combinedMsgIndex = (Hash.addressToBytes32(_msgSender()) << 96) |\r\n            bytes32(_sequence);\r\n\r\n        bytes32 messageId = Hash.getHash(message, combinedMsgIndex);\r\n\r\n        uint256 estimatedFee = _config.getFee(message.toChainId);\r\n\r\n        if (message.payMaster == Data.PayMaster.METREON_PAY) {\r\n            require(\r\n                msg.value == 0,\r\n                \"Dont pass in any value for PayMaster.METREON_PAY\"\r\n            );\r\n\r\n            _pay.payGas(_msgSender(), estimatedFee, messageId);\r\n        } else {\r\n            if (msg.value < estimatedFee) revert InsufficientGasFee();\r\n        }\r\n\r\n        for (uint256 index = 0; index < message.tokens.length; index++) {\r\n            Data.Token memory token = message.tokens[index];\r\n\r\n            if (token.tokenId == 0xEeeeeEeeeEeEeeEeEeEeeEEEeeeeEeeeeeeeEEeE) {\r\n                payable(tokenPool).transfer(msg.value);\r\n            } else {\r\n                IERC20 tokenContract = IERC20(token.tokenId);\r\n                tokenContract.transferFrom(\r\n                    _msgSender(),\r\n                    tokenPool,\r\n                    token.amount\r\n                );\r\n            }\r\n        }\r\n\r\n        emit Dispatch(\r\n            messageId,\r\n            estimatedFee,\r\n            0xEeeeeEeeeEeEeeEeEeEeeEEEeeeeEeeeeeeeEEeE, // native coin\r\n            _sequence, // message sequence\r\n            message.toChainId,\r\n            _msgSender(),\r\n            message.receiver,\r\n            message.tokens,\r\n            message.payMaster,\r\n            message.payload\r\n        );\r\n\r\n        _sequence++;\r\n\r\n        return messageId;\r\n    }\r\n\r\n    function postMessage(\r\n        address receiver,\r\n        Data.IncomingMessage calldata message,\r\n        address tokenPool\r\n    ) external override onlyOwner {\r\n        if (_executed[message.messageId]) {\r\n            revert AlreadyExecuted(message.messageId);\r\n        }\r\n\r\n        if (message.tokens.length > 0) {\r\n            IPool pool = IPool(tokenPool);\r\n            pool.withdrawTo(receiver, message);\r\n        }\r\n\r\n        IMessageReceiver messageReceiver = IMessageReceiver(receiver);\r\n        messageReceiver.metreonReceive(message);\r\n\r\n        emit PostMessage(message.messageId);\r\n\r\n        _executed[message.messageId] = true;\r\n    }\r\n}\r\n",
  "sourcePath": "C:\\Users\\DELL\\Documents\\metreon.hack.areon\\smart-contracts\\contracts\\Metreon.sol",
  "compiler": {
    "name": "solc",
    "version": "0.8.17+commit.8df45f5f.Emscripten.clang"
  },
  "schemaVersion": "3.4.11",
  "updatedAt": "2024-01-27T01:05:15.062Z",
  "networkType": "ethereum",
  "devdoc": {
    "kind": "dev",
    "methods": {
      "owner()": {
        "details": "Returns the address of the current owner."
      },
      "renounceOwnership()": {
        "details": "Leaves the contract without owner. It will not be possible to call `onlyOwner` functions. Can only be called by the current owner. NOTE: Renouncing ownership will leave the contract without an owner, thereby disabling any functionality that is only available to the owner."
      },
      "transferOwnership(address)": {
        "details": "Transfers ownership of the contract to a new account (`newOwner`). Can only be called by the current owner."
      }
    },
    "version": 1
  },
  "userdoc": {
    "kind": "user",
    "methods": {},
    "version": 1
  }
}