{
  "contractName": "TokenPool",
  "abi": [
    {
      "inputs": [],
      "stateMutability": "nonpayable",
      "type": "constructor"
    },
    {
      "inputs": [
        {
          "internalType": "address",
          "name": "router",
          "type": "address"
        }
      ],
      "name": "InvalidRouter",
      "type": "error"
    },
    {
      "inputs": [
        {
          "internalType": "address",
          "name": "owner",
          "type": "address"
        }
      ],
      "name": "OwnableInvalidOwner",
      "type": "error"
    },
    {
      "inputs": [
        {
          "internalType": "address",
          "name": "account",
          "type": "address"
        }
      ],
      "name": "OwnableUnauthorizedAccount",
      "type": "error"
    },
    {
      "anonymous": false,
      "inputs": [
        {
          "indexed": true,
          "internalType": "address",
          "name": "previousOwner",
          "type": "address"
        },
        {
          "indexed": true,
          "internalType": "address",
          "name": "newOwner",
          "type": "address"
        }
      ],
      "name": "OwnershipTransferred",
      "type": "event"
    },
    {
      "inputs": [],
      "name": "owner",
      "outputs": [
        {
          "internalType": "address",
          "name": "",
          "type": "address"
        }
      ],
      "stateMutability": "view",
      "type": "function"
    },
    {
      "inputs": [],
      "name": "renounceOwnership",
      "outputs": [],
      "stateMutability": "nonpayable",
      "type": "function"
    },
    {
      "inputs": [
        {
          "internalType": "address",
          "name": "newOwner",
          "type": "address"
        }
      ],
      "name": "transferOwnership",
      "outputs": [],
      "stateMutability": "nonpayable",
      "type": "function"
    },
    {
      "inputs": [
        {
          "internalType": "address",
          "name": "to",
          "type": "address"
        },
        {
          "components": [
            {
              "internalType": "address",
              "name": "tokenId",
              "type": "address"
            },
            {
              "internalType": "uint256",
              "name": "amount",
              "type": "uint256"
            }
          ],
          "internalType": "struct Data.Token[]",
          "name": "tokens",
          "type": "tuple[]"
        }
      ],
      "name": "withdrawTo",
      "outputs": [],
      "stateMutability": "nonpayable",
      "type": "function"
    }
  ],
  "bytecode": "0x60808060405234610093573315610064576000805433600160a060020a0319821681178355604051929091600160a060020a0316907f8be0079c531659141344cd1fd0a4f28419497f9722a3daafe3b4186f6b6457e09080a361048690816100998239f35b807f1e4fbdf7000000000000000000000000000000000000000000000000000000006024925260006004820152fd5b600080fdfe6080604081815260048036101561001557600080fd5b6000927c010000000000000000000000000000000000000000000000000000000084350490816337a0190f1461019957508063715018a6146101445780638da5cb5b1461011a5763f2fde38b1461006b57600080fd5b34610116576020366003190112610116576100846103b6565b9061008d61040c565b600160a060020a038092169283156100e7575050825473ffffffffffffffffffffffffffffffffffffffff19811683178455167f8be0079c531659141344cd1fd0a4f28419497f9722a3daafe3b4186f6b6457e08380a380f35b908460249251917f1e4fbdf7000000000000000000000000000000000000000000000000000000008352820152fd5b8280fd5b505034610140578160031936011261014057600160a060020a0360209254169051908152f35b5080fd5b833461019657806003193601126101965761015d61040c565b80600160a060020a038154811981168355167f8be0079c531659141344cd1fd0a4f28419497f9722a3daafe3b4186f6b6457e08280a380f35b80fd5b91849150346101405783600319360112610140576101b56103b6565b60249467ffffffffffffffff8635818111610323573660238201121561032357808501358281116103a1576020926101f184808402018a6103d1565b8189528985858b0193028401019236841161039d578a01915b838310610340575050505061021d61040c565b845b865181101561033c578486838084028a01015184600160a060020a0391888d848351169081156000146102a8575050508394509183929183920151908290821561029e575b8a1690f115610294575b600019811461027f5760010161021f565b878660118760e060020a634e487b7102835252fd5b82513d87823e3d90fd5b6108fc9150610264565b846044959793940151908b5198899788967fa9059cbb00000000000000000000000000000000000000000000000000000000885216908601528401525af18015610332576102f7575b5061026e565b8281813d831161032b575b61030c81836103d1565b8101031261032757518015150361032357886102f1565b8580fd5b8680fd5b503d610302565b84513d89823e3d90fd5b8580f35b858336031261039d578551868101818110848211176103885787528335600160a060020a03811681036103845781528386013586820152815291850191840161020a565b8a80fd5b8c8b60418c60e060020a634e487b7102835252fd5b8880fd5b888760418860e060020a634e487b7102835252fd5b60043590600160a060020a03821682036103cc57565b600080fd5b90601f8019910116810190811067ffffffffffffffff8211176103f357604052565b60e060020a634e487b7102600052604160045260246000fd5b600160a060020a0360005416330361042057565b60246040517f118cdaa7000000000000000000000000000000000000000000000000000000008152336004820152fdfea264697066735822122000d85c3463b0f28bb82beba77d317a170eac9bf775b04548e3bcb10dcd91e13a64736f6c63430008140033",
  "immutableReferences": {},
  "source": "// SPDX-License-Identifier: MIT\r\npragma solidity ^0.8.17;\r\n\r\nimport {Pool} from \"./pool.sol\";\r\nimport {Data} from \"../libraries/Data.sol\";\r\n\r\nimport {IERC20} from \"@openzeppelin/contracts/token/ERC20/IERC20.sol\";\r\n\r\ncontract TokenPool is Pool {\r\n    constructor() Pool() {}\r\n\r\n    function _withdrawTo(\r\n        address to,\r\n        Data.Token[] memory tokens\r\n    ) internal override {\r\n        for (uint256 index = 0; index < tokens.length; index++) {\r\n            Data.Token memory token = tokens[index];\r\n\r\n            if (token.tokenId == address(0)) {\r\n                payable(to).transfer(token.amount);\r\n            } else {\r\n                IERC20 tokenContract = IERC20(token.tokenId);\r\n                tokenContract.transfer(to, token.amount);\r\n            }\r\n        }\r\n    }\r\n}\r\n",
  "sourcePath": "C:\\Users\\DELL\\Documents\\metreon.hack.areon\\smart-contracts\\contracts\\pool\\TokenPool.sol",
  "compiler": {
    "name": "solc",
    "version": "0.8.20+commit.a1b79de6.Emscripten.clang"
  },
  "schemaVersion": "3.4.11",
  "updatedAt": "2024-01-13T09:27:03.524Z",
  "devdoc": {
    "errors": {
      "OwnableInvalidOwner(address)": [
        {
          "details": "The owner is not a valid owner account. (eg. `address(0)`)"
        }
      ],
      "OwnableUnauthorizedAccount(address)": [
        {
          "details": "The caller account is not authorized to perform an operation."
        }
      ]
    },
    "kind": "dev",
    "methods": {
      "owner()": {
        "details": "Returns the address of the current owner."
      },
      "renounceOwnership()": {
        "details": "Leaves the contract without owner. It will not be possible to call `onlyOwner` functions. Can only be called by the current owner. NOTE: Renouncing ownership will leave the contract without an owner, thereby disabling any functionality that is only available to the owner."
      },
      "transferOwnership(address)": {
        "details": "Transfers ownership of the contract to a new account (`newOwner`). Can only be called by the current owner."
      }
    },
    "version": 1
  },
  "userdoc": {
    "kind": "user",
    "methods": {},
    "version": 1
  }
}