{
  "contractName": "TokenPool",
  "abi": [
    {
      "inputs": [
        {
          "internalType": "address",
          "name": "config_",
          "type": "address"
        }
      ],
      "stateMutability": "nonpayable",
      "type": "constructor"
    },
    {
      "inputs": [
        {
          "internalType": "address",
          "name": "router",
          "type": "address"
        }
      ],
      "name": "InvalidRouter",
      "type": "error"
    },
    {
      "anonymous": false,
      "inputs": [
        {
          "indexed": true,
          "internalType": "address",
          "name": "previousOwner",
          "type": "address"
        },
        {
          "indexed": true,
          "internalType": "address",
          "name": "newOwner",
          "type": "address"
        }
      ],
      "name": "OwnershipTransferred",
      "type": "event"
    },
    {
      "inputs": [],
      "name": "owner",
      "outputs": [
        {
          "internalType": "address",
          "name": "",
          "type": "address"
        }
      ],
      "stateMutability": "view",
      "type": "function",
      "constant": true
    },
    {
      "inputs": [],
      "name": "renounceOwnership",
      "outputs": [],
      "stateMutability": "nonpayable",
      "type": "function"
    },
    {
      "inputs": [
        {
          "internalType": "address",
          "name": "newOwner",
          "type": "address"
        }
      ],
      "name": "transferOwnership",
      "outputs": [],
      "stateMutability": "nonpayable",
      "type": "function"
    },
    {
      "inputs": [
        {
          "internalType": "address",
          "name": "to",
          "type": "address"
        },
        {
          "components": [
            {
              "internalType": "bytes32",
              "name": "messageId",
              "type": "bytes32"
            },
            {
              "internalType": "uint256",
              "name": "fromChainId",
              "type": "uint256"
            },
            {
              "internalType": "address",
              "name": "sender",
              "type": "address"
            },
            {
              "internalType": "bytes",
              "name": "payload",
              "type": "bytes"
            },
            {
              "components": [
                {
                  "internalType": "address",
                  "name": "tokenId",
                  "type": "address"
                },
                {
                  "internalType": "uint256",
                  "name": "amount",
                  "type": "uint256"
                }
              ],
              "internalType": "struct Data.Token[]",
              "name": "tokens",
              "type": "tuple[]"
            },
            {
              "internalType": "enum Data.PayMaster",
              "name": "payMaster",
              "type": "uint8"
            }
          ],
          "internalType": "struct Data.IncomingMessage",
          "name": "message",
          "type": "tuple"
        }
      ],
      "name": "withdrawTo",
      "outputs": [],
      "stateMutability": "nonpayable",
      "type": "function"
    }
  ],
  "bytecode": "0x6080346100a8576106ec80380390601f19601f83011683019183831067ffffffffffffffff8411176100ad578084926020946040528339810103126100a85751600160a060020a0390818116908190036100a857600054600160a060020a0319903382821617600055604051933391167f8be0079c531659141344cd1fd0a4f28419497f9722a3daafe3b4186f6b6457e0600080a3600154161760015561060f90816100dd8239f35b600080fd5b7f4e487b7100000000000000000000000000000000000000000000000000000000600052604160045260246000fdfe6040608081526004908136101561001557600080fd5b6000917c0100000000000000000000000000000000000000000000000000000000833504806325ed576d14610212578063715018a6146101b05780638da5cb5b146101795763f2fde38b1461006957600080fd5b34610175576020366003190112610175576100826104c1565b9061008b6104e9565b73ffffffffffffffffffffffffffffffffffffffff8092169283156100f2575050825473ffffffffffffffffffffffffffffffffffffffff19811683178455167f8be0079c531659141344cd1fd0a4f28419497f9722a3daafe3b4186f6b6457e08380a380f35b90602060849251917f08c379a0000000000000000000000000000000000000000000000000000000008352820152602660248201527f4f776e61626c653a206e6577206f776e657220697320746865207a65726f206160448201527f64647265737300000000000000000000000000000000000000000000000000006064820152fd5b8280fd5b5050346101ac57816003193601126101ac5773ffffffffffffffffffffffffffffffffffffffff60209254169051908152f35b5080fd5b833461020f578060031936011261020f576101c96104e9565b8073ffffffffffffffffffffffffffffffffffffffff8154811981168355167f8be0079c531659141344cd1fd0a4f28419497f9722a3daafe3b4186f6b6457e08280a380f35b80fd5b50913461020f576003199282843601126101ac5761022e6104c1565b9260249485359467ffffffffffffffff918287116104bd5760c08786019188360301126104bd579561025e6104e9565b8781013590608401865b610272828a610568565b90508110156104b957610285828a610568565b8210156104a457868202018681360312610420578651908782018281108882111761048f578852803573ffffffffffffffffffffffffffffffffffffffff928382169182810361047a57818f92918992528c8c602095868080950198013588528860015416915195869586947ffb0d2b5000000000000000000000000000000000000000000000000000000000865285015283015260449485915afa90811561048557918f8a908f979695938f95908f918a91610435575b50881691826103a157505050505050508280928192519082908215610397575b8a1690f11561038d575b600019811461037857600101610268565b898860118960e060020a634e487b7102835252fd5b85513d89823e3d90fd5b6108fc915061035d565b8598969993949597519151998a9788967fa9059cbb00000000000000000000000000000000000000000000000000000000885216908601528401525af1801561042b576103f0575b5050610367565b81813d8311610424575b610404818361059e565b8101031261042057518015150361041c5738806103e9565b8780fd5b8880fd5b503d6103fa565b88513d8c823e3d90fd5b95979899505050505091508281813d831161047e575b610455818361059e565b8101031261047a5751848116810361047a57918b918f8a908f979695878f919061033d565b8c80fd5b503d61044b565b8b513d8f823e3d90fd5b8c8b60418c60e060020a634e487b7102835252fd5b8a8960328a60e060020a634e487b7102835252fd5b8780f35b8580fd5b6004359073ffffffffffffffffffffffffffffffffffffffff821682036104e457565b600080fd5b73ffffffffffffffffffffffffffffffffffffffff60005416330361050a57565b60646040517f08c379a000000000000000000000000000000000000000000000000000000000815260206004820152602060248201527f4f776e61626c653a2063616c6c6572206973206e6f7420746865206f776e65726044820152fd5b903590601e19813603018212156104e4570180359067ffffffffffffffff82116104e4576020019160408202360383136104e457565b90601f8019910116810190811067ffffffffffffffff8211176105c057604052565b60e060020a634e487b7102600052604160045260246000fdfea2646970667358221220dd1c815ef9da30c81297b24c8b7270674eac520c6f7a9c7f40154815e68f3be864736f6c63430008110033",
  "immutableReferences": {},
  "source": "// SPDX-License-Identifier: MIT\r\npragma solidity ^0.8.17;\r\n\r\nimport {Pool} from \"./pool.sol\";\r\nimport {Data} from \"../libraries/Data.sol\";\r\n\r\nimport {IMetreonConfig} from \"../interfaces/IMetreonConfig.sol\";\r\n\r\nimport {IERC20} from \"@openzeppelin/contracts/token/ERC20/IERC20.sol\";\r\n\r\ncontract TokenPool is Pool {\r\n    IMetreonConfig private _config;\r\n\r\n    constructor(address config_) Pool() {\r\n        _config = IMetreonConfig(config_);\r\n    }\r\n\r\n    function _withdrawTo(\r\n        address to,\r\n        Data.IncomingMessage calldata message\r\n    ) internal override {\r\n        for (uint256 index = 0; index < message.tokens.length; index++) {\r\n            Data.Token memory token = message.tokens[index];\r\n\r\n            address tokenId = _config.getChainTokenId(\r\n                message.fromChainId,\r\n                token.tokenId\r\n            );\r\n\r\n            if (tokenId == address(0)) {\r\n                payable(to).transfer(token.amount);\r\n            } else {\r\n                IERC20 tokenContract = IERC20(tokenId);\r\n                tokenContract.transfer(to, token.amount);\r\n            }\r\n        }\r\n    }\r\n}\r\n",
  "sourcePath": "C:\\Users\\DELL\\Documents\\metreon.hack.areon\\smart-contracts\\contracts\\pool\\TokenPool.sol",
  "compiler": {
    "name": "solc",
    "version": "0.8.17+commit.8df45f5f.Emscripten.clang"
  },
  "schemaVersion": "3.4.11",
  "updatedAt": "2024-01-20T09:25:45.980Z",
  "networkType": "ethereum",
  "devdoc": {
    "kind": "dev",
    "methods": {
      "owner()": {
        "details": "Returns the address of the current owner."
      },
      "renounceOwnership()": {
        "details": "Leaves the contract without owner. It will not be possible to call `onlyOwner` functions. Can only be called by the current owner. NOTE: Renouncing ownership will leave the contract without an owner, thereby disabling any functionality that is only available to the owner."
      },
      "transferOwnership(address)": {
        "details": "Transfers ownership of the contract to a new account (`newOwner`). Can only be called by the current owner."
      }
    },
    "version": 1
  },
  "userdoc": {
    "kind": "user",
    "methods": {},
    "version": 1
  }
}